:020000040800F2
:1000000038A50020450100088B1800082B150008B2
:10001000891800082F02000875260008000000005B
:10002000000000000000000000000000492300085C
:100030006502000800000000AD180008C923000890
:100040005F0100085F0100085F0100085F01000810
:100050005F0100085F0100085F0100085F01000800
:100060005F0100085F0100085F0100085F010008F0
:100070005F0100085F0100085F0100085F010008E0
:100080005F0100085F0100085F0100085F010008D0
:100090005F0100085F0100085F0100085F010008C0
:1000A0005F0100085F0100085F0100085F010008B0
:1000B0005F0100085F0100085F0100085F010008A0
:1000C0005F0100085F0100085F0100085F01000890
:1000D0005F0100085F0100085F0100085F01000880
:1000E0005F0100085F0100085F0100085F01000870
:1000F0005F0100085F0100085F0100085F01000860
:100100005F0100085F0100085F0100085F0100084F
:100110005F0100085F0100085F0100085F0100083F
:100120005F0100085F0100085F0100085F0100082F
:10013000DFF80CD000F05AF800480047B929000851
:1001400038A500200648804706480047FEE7FEE73E
:10015000FEE7FEE7FEE7FEE7FEE7FEE7FEE7FEE777
:100160005924000831010008202A04DB203A21FA32
:1001700002F00021704721FA02F3D040C2F12002C0
:1001800091400843194670472DE9F05F054600206D
:1001900092469B4688460646814640241BE02846F8
:1001A000414647462246FFF7DFFF53465A46C01AEC
:1001B000914110D311461846224600F029F82D1A15
:1001C00067EB01084F4622460120002100F020F88D
:1001D00017EB00094E41201EA4F10104DFDC484664
:1001E00031462A464346BDE8F09F0000064C074DC5
:1001F00006E0E06840F0010394E8070098471034F7
:10020000AC42F6D3FFF798FF302A0008502A0008C6
:10021000202A04DB203A00FA02F1002070479140C6
:10022000C2F1200320FA03F3194390407047FEE720
:1002300070B505464FF40E71094801F0A1F900218F
:10024000044601706868A060A868C4F83012C4F859
:100250003412E060204602F079F8204670BD0000BC
:10026000240100207047000030B5B3F5804F05D061
:100270006FF0704140F82210002030BD8C690B688F
:100280008D6823434C688989240144EA052423436B
:1002900043EA014150F82230014C23401943E9E779
:1002A0000000F0CF30B50A6850F8223023F0010387
:1002B00040F822308C68204B4A68082C1ED022431C
:1002C000D1E903452C4322434C6922438C692243E4
:1002D000CC6922430C6A22434C6A22438C6A224333
:1002E000CC6A22430C6B0968224350F821401C4021
:1002F00052EA040240F82120002030BDD1E9034534
:1003000042F008022C4322434C6922438C69224369
:10031000CC6922430C6A22434C6A22438C6A2243F2
:10032000CC6A22430C6B0968224350F821401C40E0
:10033000224342F04002DDE78100F7FF30B5D1E90A
:10034000003443EA04138C688D89240244EA05448E
:1003500023430C8A094D00EB820005EB0454234330
:100360000C7D6D0105EB0464896923430B434168EF
:1003700001F040410B434360002030BD0000F0FF1E
:1003800070B5044600F042F90546601C02D00448EE
:100390000078044400F03AF9401BA042FAD370BD43
:1003A0000800002030B5174885B00168002927D122
:1003B000012101601448416941F480714161406943
:1003C000022400F48070049041F20100CDE90004A1
:1003D0000325694603950D4800F01EF84FF680701E
:1003E000CDE9000469460395094800F015F84CF280
:1003F0003370CDE9000469460395064800F00CF817
:1004000005B030BD00000020001002400020014077
:1004100000180140001401402DE9F84FDFF8B8A1A1
:1004200000220AF1040B144601274FF00F090BF1CB
:10043000040E00BF0B6807FA04F52B40AB4274D1E1
:10044000DFF898C14E68A6EB0C0866452BD00DDC92
:10045000032E34D005DC36B3012E19D0022E2FD155
:100460001BE0112E16D0122E2AD119E0B8F5881FE4
:1004700019D006DCB8F5803F15D0B8F5801F1FD124
:1004800011E0B8F5001F0ED0B8F5041F18D10AE02E
:10049000CA6815E0CA68121D12E0CA6808320FE087
:1004A000CA680C320CE08A682AB1012A4FF00802AF
:1004B00003D0456104E0042202E0056100E000226F
:1004C000FF2B01D8064601E000F104064FEA84053F
:1004D00001D9A5F12005D6F800C009FA05F82CEAE3
:1004E000080C02FA05F54CEA050CC6F800C04D6888
:1004F000ED006AD53A4DAE6946F00106AE61AD69D0
:1005000024F0030605F001050095364D06EB050CB9
:10051000DCF80850A6074FEA167809FA08F6B54342
:10052000314EB04202D100261AE04EE02F4EB042CA
:1005300001D1012614E02E4EB04201D102260FE077
:100540002C4EB04201D103260AE02B4EB04201D11D
:10055000042605E0294EB04201D1052600E006261A
:1005600006FA08F62E43CCF808604D68DAF8006009
:10057000ED03554601D51E4300E09E432E604D68B5
:10058000AD0305D5DBF800601E43CBF8006004E046
:10059000DBF800509D43CBF800504D68DEF800605A
:1005A000ED02754601D51E4300E09E432E604D6866
:1005B000AD0205D5084D0C352E681E432E6004E0B3
:1005C000054E0C3635689D433560641C102CFFF4D5
:1005D00031AFBDE8F88F00000004014000001110A9
:1005E000001002400000014000080140000C0140E2
:1005F000001001400014014000180140001C01409F
:100600000AB1016170470904FBE7000001488068F6
:1006100070470000080000200248816802781144F9
:100620008160704708000020074810B5016841F05C
:1006300010010160032000F091F8002000F006F89E
:1006400000F024F8002010BD0020024070B50D4DD0
:1006500004464FF47A712878B1FBF0F00A49096832
:10066000B1FBF0F000F08FFE48B9102C07D2002249
:100670002146501E00F052F800206C6070BD012031
:1006800070BD00000800002014000020214808B5BB
:10069000816941F001018161816901F001010091ED
:1006A000C16941F08051C161C06900F08050009083
:1006B000032000F053F8002211466FF00B0000F009
:1006C0002DF8002211466FF00A0000F027F80022F2
:1006D00011466FF0090000F021F800221146501F6A
:1006E00000F01CF800221146101F00F017F800223D
:1006F0001146901E00F012F800221146501E00F024
:100700000DF80548416821F0E06141F00071416059
:1007100008BD00000010024000000140F0B40E4B84
:100720001B680C46C3F30223C3F10705042D00D94F
:100730000425191D072901D2002300E0DB1E012634
:1007400006FA05F1491E214099409E40761E16404A
:100750003143F0BC01F09AB80CED00E0064900F01E
:10076000070208684FF6FF03184040EA0220034AD8
:1007700010430860704700000CED00E00000FA052F
:100780002DE9F047DFF83C8105460E46D8F8000019
:1007900000F00700B0420CD2D8F8001021F0070199
:1007A0003143C8F80010D8F8000000F00700B0424C
:1007B00063D12878444C800705D56068A96820F08B
:1007C000F000084360602878C00745D068680128B9
:1007D00016D02168022816D0890700294DDA6168F1
:1007E00021F0030101436160FFF710FF69680746CC
:1007F00041F2883001290FD00229814619D027E023
:1008000021688903E9E78901E7E700BFFFF7FEFEFA
:10081000C11B494501D918E081466068C0F38100D9
:100820000128F3D118E000BFFFF7F0FEC11B4945D6
:100830000BD86068C0F381000228F5D10CE000BF3E
:10084000FFF7E4FEC11B494502D90320BDE8F0874C
:10085000606810F00C0FF3D1D8F80010404601F09A
:100860000701B1420BD9016821F007013143016052
:10087000006800F00700B04201D00120E6E72878C8
:10088000400705D56068E96820F4E06008436060CF
:100890002878000706D56068296920F4605040EA8E
:1008A000C100606000F03CF86168084AC1F30311C0
:1008B000515CC840064908600020FFF7C7FE0020D1
:1008C000C4E700000020024000100240182A00087F
:1008D0001400002001480068704700001400002048
:1008E0000448054900684968044AC1F30221515C83
:1008F000C84070471400002000100240282A000859
:100900000448054900684968044AC1F3C221515CA2
:10091000C84070471400002000100240282A000838
:1009200012A185B00FC98DE80F0014A0144A006809
:1009300004905168134801F00C03042B10D0082BCD
:100940000ED1C1F38343C9031DF803000AD55168D2
:1009500004AAC1F34041515C0A4A5043B0FBF1F094
:1009600005B0704708494843FAE700000203040550
:10097000060708090A0B0C0D0E0F101001020000EB
:100980000010024000127A0000093D002DE9F84FE6
:1009900004460078B94DC00748D06868C0F38100AC
:1009A000012807D06868C0F38100022809D168686F
:1009B000C00306D52868800338D5606800286FD04A
:1009C00034E06068B0F5803F0BD010B1B0F5A02FD7
:1009D00011D0286820F480302860286820F4802016
:1009E00002E0286840F480302860606888B1FFF732
:1009F0000DFE064609E0286840F480202860F0E7F4
:100A0000FFF704FE801B642875D828688003F7D59B
:100A10000CE0FFF7FBFD064605E000BFFFF7F6FD23
:100A2000801B6428F0D828688003F7D42078944E7F
:100A300080074FF001094FF000083BD5686810F0BF
:100A40000C0F07D06868C0F38100022809D16868DC
:100A5000C00306D42868800714D5206901281FD157
:100A600010E02069B0B1C6F80090FFF7CFFD07464F
:100A700005E000BFFFF7CAFDC01B0228C4D82868E4
:100A80008007F7D52868616920F0F80040EAC100C6
:100A900028600FE0C6F80080FFF7B8FD074606E0C3
:100AA000E9E000BFFFF7B2FDC01B022823D8286889
:100AB0008007F7D4207800072CD57248A169D9B1F6
:100AC000C0F80090FFF7A2FD074604E0FFF79EFD87
:100AD000C01B02280FD8686A8007F7D56A484FF410
:100AE000FA510068B0FBF1F0009000BF0098411E81
:100AF0000091FAD20EE080E0C0F80080FFF786FD9A
:100B0000074604E0FFF782FDC01B022875D8686A1B
:100B10008007F7D42078400760D5E8690027C00037
:100B200008D4E86940F08050E861E869012700F0E6
:100B30008050009055480168C90513D40168834668
:100B400041F480710160FFF761FD824606E000BF5D
:100B5000FFF75CFDA0EB0A0064284ED8DBF800002C
:100B6000C005F5D5E06801280AD008B1052813D0E2
:100B7000286A20F001002862286A20F0040002E0C0
:100B8000286A40F001002862E06841F2883B98B191
:100B9000FFF73CFD82460BE0286A40F00400286223
:100BA000EEE700BFFFF732FDA0EB0A0159455AD826
:100BB000286A8007F6D50CE0FFF728FD824605E09D
:100BC000FFF724FDA0EB0A0159454CD8286A80079D
:100BD000F6D41FB1E86920F08050E861E06988B37D
:100BE0006968C1F38101022945D00228C6F86080F6
:100BF00004D0FFF70BFD044638E034E0FFF706FDB4
:100C0000074604E0FFF702FDC01B02282BD8286826
:100C10008001F7D4206AB0F5803F05D16868A168EB
:100C200020F4003008436860D4E90801084369688B
:100C300021F4741108436860C6F86090FFF7E6FC81
:100C4000044606E015E000BFFFF7E0FC001B0228A9
:100C500009D828688001F7D50BE000BFFFF7D6FC64
:100C6000001B022802D90320BDE8F88F2868800104
:100C7000F4D40020F8E70120F6E70000001002405D
:100C800000004242800442421400002000700040F4
:100C9000FEB5044603200D4684F83400606C03283A
:100CA00020D0B5F5805F1DD0B5F5006F05D045B1FA
:100CB000A06B40F00060A06309E0204601F01DFB3E
:100CC00002E0204601F0F2FAA16B0143A163A06BA0
:100CD000012658B1216840F2FF50886384F83460DF
:100CE0000120FEBDA06B40F08050E4E7211DD4E957
:100CF00005700EC90095CDE90170206800F0ACFECA
:100D000084F834600020FEBDF0B5426E120E9309E7
:100D10000B70C2F383034B7002F003028A70426EC1
:100D2000120CCA70B0F86420120A0A7190F864209C
:100D30004A71826E4FF6FF73120E03EA0212CA80E6
:100D4000826ECB88C2F3074243EA1213CB8002F0D3
:100D50000F020A72B0F86820C2F30722D3094B725F
:100D6000C2F380138B72C2F34013CB72C2F3001331
:100D70000B7300264E73446C4FF4007701236CB163
:100D8000012C43D0026840F2FF519163816B41F026
:100D90008051816380F834300120F0BD9207120D3C
:100DA0000A6190F868200C6944EA82020A61C26E06
:100DB0000C69120E44EA92140C61C2F3C2040C7561
:100DC00002F007024A75C26EC2F3074254098C75DD
:100DD000C2F38204CC759207520F0A76B0F86C20E9
:100DE000C2F307240A7E42EAD4120A760A69521C28
:100DF00042650D7EAD1CAA4042650D7A03FA05F5E9
:100E000085656D0A6A43C0E917271CE090F86820E1
:100E10009206920A0A61C26E0C69120E44EA02221C
:100E20000A61C26E0C69C2F3074214430C61B0F848
:100E30006C20C2F307240A69521C4FEA82224265E1
:100E4000C0E916720766C4F3801201F8192F4FEA41
:100E500084624FEA52624A7010F86C2F4C7844EA70
:100E6000D2144C7002F07F028A7042684FEA12621C
:100E70004FEAD214CC70C2F341140C71C2F3820455
:100E80004C714FEA82724FEA12728A7142688C7911
:100E9000C2F3074244EA92148C71C2F34014CC713D
:100EA0000E7202F001024A728288C2F307224FEAF0
:100EB000D2148C72C2F38014CC72C2F340140C733F
:100EC000C2F300144C73C2F381048C7302F003026A
:100ED000CA7300794FEA500008744B744FF0000059
:100EE000F0BD70B5040004D094F83400002510B1B2
:100EF00005E0012070BD2577204600F037F803207B
:100F000084F83400204600F007F8A563256301202B
:100F100084F83400002070BDFEB500250446C320CF
:100F20000095CDE901502B462A462946206800F05D
:100F300093FD0D4E46F8A05F206800F09FFD01254F
:100F400035600220FFF71CFA204601F05EF920B957
:100F5000204601F0E7F8002805D084F83450A16B52
:100F60000143A1630120FEBD0000304230B500689E
:100F7000104985B088421BD10F48416941F4806116
:100F800041614069022400F4806004904FF4F850FD
:100F9000CDE900040325694603950848FFF73CFAAC
:100FA0000420CDE90004694603950548FFF734FAAB
:100FB00005B030BD0080014000100240001001402B
:100FC000001401402DE9F04F87B09A4617460E46AF
:100FD0000446DDF840B0FFF719FB00903EB194F8ED
:100FE0003400012807D0A06B40F000500FE0A06B48
:100FF00040F000600BE04FF00008C4F83880E06D6E
:1010000007EB0A01814204D9A06B40F00070A06395
:101010007DE0032084F834002068C0F82C80606CE8
:10102000012800D07F024FF40071206800F076FDA7
:1010300040F2FF59012530B12268C2F83890A16B07
:101040000143A16361E04FF0FF3001904FEA4A2075
:101050000290902003900220CDE90408069501A992
:10106000206800F0DDFCBAF1010F06D902202063F0
:101070003946206800F0E0FD04E025633946206829
:1010800000F0F3FD0028D7D140F22A382068416BE8
:1010900011EA080F22D1406B000409D5002720680F
:1010A00000F0F0FC46F827007F1C082FF7D320360D
:1010B000BBF1000F05D0FFF7A9FA0099411A594575
:1010C000E4D32168C1F83890A06B40F00040A063E1
:1010D00084F83450032007B0BDE8F08F416BC90598
:1010E00009D5BAF1010F06D9616C032903D000F0CC
:1010F0004BFE0028A0D12068416B090709D5C0F834
:101100003890A06B40F0080028E084F834500120AB
:10111000E1E7416B890705D5C0F83890A06B40F036
:1011200002001BE0416B89061AD5C0F83890A06B0D
:1011300040F0200012E000BF00F0A4FC01C6BBF1AB
:10114000000F05D0FFF762FA0099411A594507D3FD
:101150002168C1F83890A06B40F00040A063D4E74C
:101160002068416B8902E7D42168C1F8389084F87F
:1011700034500020AFE700002DE9F04F87B09A46C9
:1011800016460D460446FFF741FA06903DB194F825
:101190003400012807D0A06B40F000500DE0A06B98
:1011A00040F0006009E00020A063E26D06EB0A0158
:1011B000914204D9A06B40F00070A06390E003213D
:1011C00084F8341021688146C862606C012800D020
:1011D00076024FF40071206800F0A0FC40F2FF5846
:1011E000012730B12268C2F83880A16B0143A163A6
:1011F00017E0BAF1010F06D920202063314620689C
:1012000000F0DCFD05E0102020633146206800F08E
:10121000EEFD060008D02168C1F83880A06B30438D
:10122000A06384F834705BE04FF0FF3000904FEA29
:101230004A200190902002904846CDE90407CDF85D
:101240000C90B9466946206800F0EAFB40F21A3B70
:1012500022E0406B40040AD55FF0000705EB8701F0
:10126000206800F022FC7F1C082FF7D3203510984F
:1012700030B1FFF7CBF90699411A109881420BD390
:101280002168C1F83880A06B3043A06384F83490A3
:10129000032007B0BDE8F08F2068416B11EA0B0F07
:1012A000D7D0416BC9050FD5BAF1010F0CD9616CCC
:1012B000032909D000F068FD30B12268C2F83880F7
:1012C000A16B0143A16309E02068416B090709D5BF
:1012D000C0F83880A06B40F0080014E084F8349027
:1012E0000120D6E7416B890705D5C0F83880A06B8F
:1012F00040F0020007E0416BC0F83880C90604D511
:10130000A06B40F01000A063E8E784F83490002060
:10131000BFE770B515460E46040003D094F83D00B3
:1013200010B107E0012070BD002084F83C00204689
:1013300000F01AF804F108012068FEF7B3FF314607
:10134000A2682068FEF7FAFFD4E901022946236B60
:10135000FEF78AFFA168206850F8212042F00102C0
:1013600040F82120002070BDFFF71CB84FF0E021AD
:101370000428086903D020F004000861704740F099
:101380000400FAE7704710B5401EB0F1807F01D32A
:10139000012010BD4FF0E02460610F21601700F0C4
:1013A00075FA0020A06107202061002010BD10B553
:1013B000FFF7E8FF10BD70B5040004D094F83900C1
:1013C000002510B106E0012070BD84F83850204699
:1013D00000F022F8242084F839002068C16821F444
:1013E0000051C160204601F05BF82068016921F4DA
:1013F000904101612068416921F02A014161206822
:10140000C16841F40051C160E563202084F83900CF
:1014100084F83A00002070BD10B50068114986B00C
:1014200088421DD11048816941F480418161806901
:101430000E4C00F4804004904FF4007000900220A5
:1014400001900320039069462046FEF7E5FF002146
:101450002015CDE90001029169462046FEF7DCFF28
:1014600006B010BD003801400010024000080140E5
:101470002DE9F843044690F839001F4616460D46FC
:10148000202850D1A5B19EB194F8380001284AD047
:10149000012084F838004FF00008C4F83C80212077
:1014A00084F83900FFF7B2F8A6848146E68426E086
:1014B0000120BDE8F883E08C401EE084A0684B4624
:1014C000B0F5805F4FF000024FF08001204600979A
:1014D00003D001F09DF8E8B90DE001F099F8C8B922
:1014E00028882168C0F308004860206908B16D1C95
:1014F00005E0AD1C03E0216815F8010B4860E08CA5
:101500000028D8D14B46002240212046009701F008
:101510007FF808B10320CCE7202084F8390084F854
:1015200038800020C5E70220C3E7FEE7F0B58268F7
:10153000D0E9003400261546A2420FD18160E01A9E
:1015400015E056689F19A74205D1CB1A536005C80C
:10155000101A4860F0BD16463A4601E0D1F800C0C6
:101560001768BC45EDD8954203D18160D01A486018
:10157000F0BDD21A4A600068081A7060F0BD000021
:1015800070B505460E468468696820468C420CD1C9
:101590001AA006E020462B6864681C44A14205D1CD
:1015A0001CA001F07DF8002070BDEA682368134498
:1015B000B342EFD361684160E868226881198A42CA
:1015C00010D9A1190144101A801B0860A868A04214
:1015D00003D1A9606068486002E02846FFF7A6FFD3
:1015E000266007E02660A868A04203D128686168E9
:1015F0000844A860E868204470BD0000C4DAB4E67E
:10160000C2FA2CCEDEC4DAB4E6BFC9D2D4B7D6C58E
:10161000E40D0A00CEDEC4DAB4E6BFC9D2D4B7D630
:10162000C5E40D0A0000000010B504468818C4E99E
:1016300000100820C4E902104A600A6007A021686F
:1016400001F02EF80BA0616801F02AF8D4E900102F
:10165000411ABDE810400DA001F022B86D6573730A
:101660002D3E737461727441646472203D202523A1
:10167000580D0A006D6573732D3E656E6441646498
:1016800072203D202523580D0A0000006D657373FC
:101690002D3E656E6441646472202D206D65737308
:1016A0002D3E737461727441646472203D20256420
:1016B0000D0A000000B51E488FB04FF020410160B8
:1016C0001C4941600621816000211022C160C0E9EF
:1016D00004128161C16113020162C0E9091393021E
:1016E000C0E90B1341638163012000900F200DF1CD
:1016F000080C112301908CE80F000691CDE907102A
:101700000DF1240C03208CE80F000D9107AA694607
:101710000748FFF7FEFD18B15D2107A000F0ACFF00
:101720000948C16941F48061C1610FB000BD00008A
:101730001C000020040100A02E2E2F5372632F6680
:10174000736D632E6300000000000140224810B555
:10175000816986B041F008018161816901F0080169
:101760000491816941F480718161816901F4807122
:101770000491816941F040018161816901F040017A
:101780000491816941F020018161816901F02001AA
:101790000491816941F010018161816901F01001BA
:1017A0000491816941F00401816180690B4C00F072
:1017B00004000490002201212046FEF721FF0121B0
:1017C0000220CDE902100091019169462046FEF702
:1017D00023FE06B010BD000000100240000C0140C6
:1017E000114810B50F490160002141608160C1605E
:1017F0000161416104218161FFF773FB18B141214F
:101800000AA000F039FF4FF400610748FFF740FAE3
:10181000002805D0BDE81040462104A000F02CBFF0
:1018200010BD000000800140600000202E2E2F53CC
:1018300072632F7364696F2E630000000D4810B54A
:101840000B4901604FF4E1314160002181600C22BD
:10185000C160C0E904128161C161FFF7ACFD0028DD
:1018600005D0BDE81040422103A000F005BF10BD27
:1018700000380140E40000202E2E2F5372632F7594
:10188000736172742E630000FEE770470907090E4A
:10189000002806DA00F00F0000F1E02080F8141DA7
:1018A000704700F1E02080F8001470477047000096
:1018B00070B5044604F11001A368D0F810020122AB
:1018C0000D469847B5F80B10A4F81612687B84F8FB
:1018D0001402286A00FB01F2120DC4F82022C4F899
:1018E0001802686AC4F81C02EB89D4F810221A4462
:1018F000C4F824222B7C00FB0320C4F82C02E86AE5
:10190000C4F828020DA004F5047400F0C9FE11A06B
:10191000216900F0C5FE14A0E16900F0C1FE18A025
:10192000616900F0BDFE1BA0E16800F0B9FE2179FD
:10193000BDE870401DA000F0B3BE0000B5A5B8F62C
:10194000C9C8C7F8B4F3D0A1A3BA256420627974DA
:10195000730D0A00B4C5C5CCC8DDC1BFA3BA2564E8
:10196000204D0D0A00000000B8F9C4BFC2BCC9C8B0
:10197000C7F8BAC5A3BA252358200D0A00000000F5
:10198000464154B1EDC9C8C7F8BAC5A3BA25235812
:10199000200D0A00464154B1EDD5BCB5C4C9C8C735
:1019A000F8CAFDA3BA25640D0A000000D2BBB8F640
:1019B000B4D820256420B8F6C9C8C7F80D0A0000BD
:1019C00008B54FF47A730093134602460148FFF7B7
:1019D000F9FA08BD6000002008B54FF47A7300934F
:1019E000134602460148FFF7C7FB08BD6000002010
:1019F00010B50C210648FFF7C3FD04460548FFF764
:101A000070FA054860600548A060204610BD0000DF
:101A10002401002060000020C1190008D919000825
:101A20000A6842624A688262D1E902231A43D1E914
:101A300004310B43C16A1A4321F0F7011143C1621B
:101A400000207047006800F00300704708B50844A4
:101A500014300090006808BD70B50DF1100C1143F2
:101A60009CE870002343194329434268314347F6F9
:101A7000FF639A430A434260002070BD0321016066
:101A800000207047D0F8800070470A688260D1E972
:101A900001231A43D1E903310B43C1681A436FF3A1
:101AA0000B011143C160002070470968C0F8801025
:101AB0000020704710B586B004463720CDE90010ED
:101AC00040200290002003904FF48060049069460B
:101AD0002046FFF7DAFF41F288323721204600F036
:101AE0009FF906B010BD000010B504460A4886B044
:101AF00001432920CDE900104020029000200390EE
:101B00004FF48060049069462046FFF7BEFF2046F0
:101B100000F03CFA06B010BD0000108010B586B091
:101B200004461020CDE900104020029000200390D0
:101B30004FF48060049069462046FFF7A6FF41F20B
:101B400088321021204600F06BF906B010BD10B5A8
:101B500086B004460620CDE9001040200290002007
:101B600003904FF48060049069462046FFF78DFF94
:101B700041F288320621204600F052F906B010BD2D
:101B800030B585B000240546009401944FF4806080
:101B90000294CDE9034069462846FFF776FF0B48DB
:101BA0004FF4FA510068B0FBF1F041F2883148433C
:101BB000401E03D24FF0004005B030BD696B0906EE
:101BC000F6D540F2FF50A8632046F5E71400002048
:101BD00070B585B004464FF4D570009008204026BB
:101BE000CDE901060025C001CDE903506946204634
:101BF000FFF74BFF0F484FF4FA510068B0FBF1F0CC
:101C000041F288314843401E02D24FF000450DE0BA
:101C1000616B11F0450FF6D0606B400702D5A663EB
:101C2000042503E0606B400600D5A66305B0284696
:101C300070BD00001400002010B586B004461220CC
:101C4000CDE9001040200290002003904FF4806006
:101C5000049069462046FFF718FF41F288321221AE
:101C6000204600F0DDF806B010BD10B586B0044681
:101C70001120CDE9001040200290002003904FF485
:101C80008060049069462046FFF7FFFE41F28832EB
:101C90001121204600F0C4F806B010BD10B586B082
:101CA00004460720CDE90020402002900020039048
:101CB0004FF48060049069462046FFF7E6FE41F24B
:101CC00088320721204600F0ABF806B010BD10B5F1
:101CD00086B0044600210220CDE90010C020CDE9E5
:101CE00002014FF48060049069462046FFF7CDFE64
:101CF000204600F023F906B010BD10B586B00446AA
:101D00000920CDE90010C0200290002003904FF47C
:101D10008060049069462046FFF7B7FE204600F039
:101D20000DF906B010BD10B586B004460021332071
:101D3000CDE900104020CDE9020100010490694680
:101D40002046FFF7A2FE41F288323321204600F000
:101D500067F806B010BD30B585B00C4605460021C9
:101D60000320CDE900104020CDE9020100010490DC
:101D700069462846FFF789FE22460321284600F0DF
:101D800025F905B030BD000010B586B0044600212D
:101D90000C20CDE900104020CDE9020100010490A3
:101DA00069462046FFF771FE034A0C21204600F0E9
:101DB00037F806B010BD000000E1F50510B586B09B
:101DC00004461920CDE90010402002900020039025
:101DD0004FF48060049069462046FFF756FE41F2BA
:101DE00088321921204600F01BF806B010BD10B54E
:101DF00086B004461820CDE9001040200290002053
:101E000003904FF48060049069462046FFF73DFE42
:101E100041F288321821204600F002F806B010BDC9
:101E2000444B10B51B684FF4FA54B3FBF4F353431F
:101E30005B1E02D24FF0004010BD426B12F0450F06
:101E4000F6D0426B520703D504218163084610BDCA
:101E5000426BD20702D00121816303E00269D2B252
:101E60008A4201D0012010BD40F2FF518163002160
:101E7000FFF7ECFD3049084201D1002010BD0028D9
:101E800002DA4FF0007010BD410001D5402010BDB6
:101E9000810001D5802010BDC10002D54FF48070B3
:101EA00010BD010102D54FF4007010BD410102D5F3
:101EB0004FF4806010BDC10102D54FF4006010BD29
:101EC000010202D54FF4805010BD410202D54FF4FB
:101ED000005010BD810202D54FF4804010BDC102F8
:101EE00002D54FF4004010BD410302D54FF400303D
:101EF00010BD810302D54FF4802010BDC10302D56F
:101F00004FF4002010BD010402D54FF4801010BD25
:101F1000410402D54FF4001010BD810402D54FF4E6
:101F2000800010BD000702D54FF4000010BD4FF433
:101F3000803010BD1400002008E0FFFD12494FF46E
:101F4000FA520968B1FBF2F141F288325143491E5D
:101F500002D24FF000407047426B12F0450FF6D0AE
:101F6000416B490703D50421816308467047416BE3
:101F7000C90703D0012181630846704740F2FF5131
:101F80008163002070470000140000200E494FF4C8
:101F9000FA520968B1FBF2F141F288325143491E0D
:101FA00002D24FF000407047426B12F0450FF6D05E
:101FB000416B490703D5042181630846704740F20D
:101FC000FF51816300207047140000201F4B10B5A3
:101FD0001B684FF4FA54B3FBF4F341F288346343C3
:101FE0005B1E02D24FF0004010BD446B14F0450F51
:101FF000F6D0436B5B0703D504218163084610BD0F
:10200000436BDB0702D00121816303E00369DBB28C
:102010008B4201D0012010BD40F2FF5181630021AD
:10202000FFF714FD10F4604F04D0410406D54FF4BF
:10203000005010BD000C1080002010BD000402D51F
:102040004FF4805010BD4FF4803010BD14000020BC
:102050002DE9F04F89B00E460446FEF7D7FA002569
:102060008346009501952F4608212068FFF756FD0D
:10207000002834D1B4F8500001042068FFF71AFD9D
:1020800000282CD1401E4FF00808CDE9020830206E
:102090004FF00209CDE904090120CDE9067002A93B
:1020A0002068FFF7BDFC2068FFF73DFE002816D131
:1020B000EA4640F22A472068416B394212D1416B0F
:1020C000890204D5FFF7DEFC4AF825006D1CFEF7F7
:1020D0009DFAA0EB0B00401CEDD14FF0004009B081
:1020E000BDE8F08F416B090703D5C0F838800820A0
:1020F000F5E7416B890703D5C0F838900220EEE779
:10210000416B890603D5202181630846E7E740F249
:10211000FF518163009800BA7060019800BA306086
:102120000020DCE710B590B004460120ADF838007F
:102130002068FFF787FC002864D0606C032842D039
:102140002068FFF7C4FD00285AD100212068FFF75E
:102150007DFC606704212068FFF778FCA0670821F8
:102160002068FFF773FCE0670C212068FFF76EFC26
:10217000C4F88000606C032825D00EA92068FFF702
:10218000EAFD00283CD1606C03281CD0BDF8380063
:10219000206501042068FFF7B0FD002830D1002140
:1021A0002068FFF753FC606604212068FFF74EFCAF
:1021B000A06608212068FFF749FCE0660C21206832
:1021C000FFF744FC206704212068FFF73FFC000D67
:1021D000E06403A92046FEF797FDB4F85000002301
:1021E00002042068FFF75AFD002809D104F110000D
:1021F00007C88DE8070094E80F00FFF72DFC0020CA
:1022000010B010BD4FF08060FAE72DE9F8430025CB
:10221000044600950068FFF7B3FC00281AD1206837
:10222000FFF7D6FC4FF080784FF6FF76D8B14FF02D
:102230008057A5640098411C0091B0421AD000213B
:102240002068FFF737FC20B900212068FFF74CFC1D
:1022500010B13846BDE8F88300212068FFF7F6FB8F
:10226000C00FE7D01FE00127A7640098411C009130
:10227000B04201D14046EDE700212068FFF71AFC8B
:102280000028E7D14FF080412068FFF72DFC00289F
:10229000E0D100212068FFF7D9FBC10FE5D0400055
:1022A00001D5676400E065640020D3E71CB50446EF
:1022B00000200090019000212068FFF7C7FB8001FB
:1022C00002D54FF400601CBD69462046FFF7C0FEF2
:1022D0000028F8D10198C0030CD5B4F850000104CF
:1022E0002068FFF7E7FB0028EDD100212068FFF709
:1022F0002EFC1CBD4FF080601CBD1CB504460020A8
:102300000090019000212068FFF7A0FB800102D51A
:102310004FF400601CBD69462046FFF799FE002877
:10232000F8D1019840030CD5B4F85000010420689E
:10233000FFF7C0FB0028EDD102212068FFF707FC62
:102340001CBD4FF080601CBD7047000070B500F1EF
:1023500010010446012283680D4600209847207C26
:10236000EB2807D095F8BE01802808D0207840F0EF
:1023700001000EE00CA000F093F900200DE00EA08B
:1023800000F08EF995F8C2010B2804D0207840F0B7
:102390000200207070BDD5F8C601C4F810022046B6
:1023A000BDE87040FFF784BA30C9C8C7F8CAC7444F
:1023B0004252C7F80D0A000030C9C8C7F8CAC74D55
:1023C0004252C7F80D0A000010B5FEF725F9BDE826
:1023D0001040FEF7ECBF000030B58FB001210804BB
:1023E000CDE900100024029402250491CDE90750A4
:1023F0004FF4E01009906846FEF7C8FA08B1B6211C
:102400000DE00F20CDE90A054FF48060CDE90C40C6
:1024100002210AA80E94FEF7B3F918B1C4210AA04C
:1024200000F02AF9FEF756FA4FF47A71B0FBF1F09A
:10243000FEF7A9FF0420FEF799FF00221146501E67
:10244000FEF76CF90FB030BD2E2E2F5372632F6D37
:1024500061696E2E630000000D48016841F00101C2
:10246000016041680B4A1140416001680A4A11400D
:102470000160016821F480210160416821F4FE01BE
:1024800041604FF41F0181600449C0030860704738
:10249000001002400000FFF8FFFFF6FE08ED00E02C
:1024A0002DE9F041044600680169E26821F44051D9
:1024B000114301612169A0680843616908432168EB
:1024C000CA6841F20C639A430243CA6020684169BA
:1024D000A26921F44071114341614C49206864258F
:1024E000322688423CD1FEF70BFA00EBC00101EB2B
:1024F000001061688900B0FBF1F7FEF701FA00EB0C
:10250000C00101EB00106168B0468900B0FBF1F03A
:10251000B0FBF5F06FF01801484307EB800106EBC4
:102520000110B0FBF5F000F0F006FEF7E9F900EB62
:10253000C00101EB001061688900B0FBF1F0B0FB55
:10254000F5F006EB0016FEF7DBF900EBC00101EB3E
:10255000001061688900B0FBF1F7FEF7D1F93BE0AC
:10256000FEF7BEF900EBC00101EB001061688900C5
:10257000B0FBF1F7FEF7B4F900EBC00101EB00107E
:102580006168B0468900B0FBF1F0B0FBF5F06FF088
:102590001801484307EB800106EB0110B0FBF5F092
:1025A00000F0F006FEF79CF900EBC00101EB001013
:1025B00061688900B0FBF1F0B0FBF5F006EB0016A6
:1025C000FEF78EF900EBC00101EB00106168890095
:1025D000B0FBF1F7FEF784F900EBC00101EB00104E
:1025E00061688900B0FBF1F0B0FBF5F06FF0180105
:1025F000484307EB800108EB0110B0FBF5F02168C0
:1026000000F00F0030448860BDE8F08100380140E0
:102610002DE9F041984617460E460446069D1DE0FA
:10262000681C1BD02DB1FDF7F1FFA0EB0800A842FC
:1026300014D92068C16821F4D071C1602068416953
:1026400021F001014161202084F8390084F83A002A
:10265000002084F838000320BDE8F081206800687D
:1026600036EA000004D00020B842D9D00020F3E7B9
:102670000120F9E7FEE70000024602A000F010F892
:10268000FEE700004572726F722121206C696E6551
:102690003A202564202C2066696C653A2573000079
:1026A0000FB4054B10B503A9044A029800F018F8BE
:1026B00010BC5DF814FB0000A129000818000020E0
:1026C00002E008C8121F08C1002AFAD170477047FB
:1026D000002001E001C1121F002AFBD17047000059
:1026E0002DE9FF4F8DB09B460F460446002606E0BD
:1026F00025280BD05A460F999047641C761C2078E9
:102700000028F5D111B03046BDE8F08F0025A8466D
:102710000122984900E0054314F8013F203B02FAEA
:1027200003F00842F7D120782E2817D114F8010FB2
:1027300045F004052A280ED06FF02F022078A0F172
:10274000300109290AD808EB880102EB410100EBAE
:102750000108641CF2E757F8048B641C20786C288D
:102760000DD004DC4C2812D06A2811D104E0742862
:102770000DD07A280CD10AE045F4001507E0617805
:1027800045F48015814202D1641C05F58015641C56
:102790002278692A45D008DC002AB3D0582A69D0AB
:1027A000632A10D0642A08D13BE0702A67D0732ACC
:1027B00013D0752A5CD0782A5CD010465A460F99FF
:1027C0009047761CD3E017F8040B8DF8000000202A
:1027D0008DF80100E946012003E057F8049B4FF013
:1027E000FF3069074FF0000501D40AE06D1C454534
:1027F0000DDA8542FADB19F805100029F6D106E05A
:102800006D1C8542FCDB19F805100029F8D12E4417
:1028100004E019F8010B5A460F9990476D1EF8D243
:10282000A5E00A200021CDE90801C5F302500228E5
:102830000DD001CFC117031E71F100030DDA4FF067
:10284000000CD0EB0C006CEB01012D2308E0FF1D08
:1028500027F00707F7E80201EDE72B0504D52B2346
:102860008DF8283001233BE0EB0739D02023F7E730
:102870000A2000E010200021CDE9080107E0102027
:10288000002145F00405CDE908014FF00808C5F323
:10289000025002280FD001CF00214FF0000A2B0771
:1028A0001FD5702A0DD0DDE908C38CF0100C5CEA4E
:1028B000030C0CD015E0FF1D27F00707F7E8020115
:1028C000EBE740228DF828204FF0010A0BE050EA98
:1028D000010306D030238DF828308DF829200223FB
:1028E0009A46582A04D024A20DF120090B9209E03F
:1028F00026A2F9E7DDE90823FDF746FC0B9B9B5C6C
:1029000009F8013D50EA0102F4D1ADEB0900203095
:102910000890680701D44FF001080899884502DD46
:10292000A8EB010000E000208046002506E00AA890
:102930005A46405D0F9990476D1C761C5545F6DB55
:1029400004E030205A460F999047761CB8F10001F8
:10295000A8F10108F5DC05E019F8010B5A460F99BA
:102960009047761C0899481E08900029F4DC641CE6
:10297000C5E60000092801003031323334353637DE
:1029800038396162636465660000000030313233BB
:10299000343536373839414243444546000000005B
:1029A00013B54FF6FF73012269460248FEF760FD3A
:1029B00000981CBDE4000020FDF736FEFFF70CFD7B
:1029C000FEF7C4FEFEF73AFFFEF774FEFEF708FFBF
:1029D00008A0FFF765FE4FF4204209490948FEF7B9
:1029E00023FEFFF705F8FDF723FC017806A0FFF7AB
:1029F00057FEFEE773746172743A0D0A000000001E
:102A000034010020240100206661746572726F2019
:102A10003D2025640D0A00000000000000000000B9
:102A20000102030406070809000000000102030474
:102A3000502A0008000000201C000000C0260008EA
:102A40006C2A00081C0000201CA50000D0260008ED
:102A50000000000000000000010000001000000065
:0C2A60000000000000A24A04000000007A
:0400000508000131BD
:00000001FF
