:020000040800F2
:1000000048CD0020450100087B4D00080F1700086F
:10001000794D00089D0400084D5B000800000000B9
:10002000000000000000000000000000A1580008CF
:1000300005060008000000004D500008A358000805
:100040005F0100085F0100085F0100085F01000810
:100050005F0100085F0100085F0100085F01000800
:100060005F0100085F0100085F0100085F010008F0
:100070005F0100085F0100085F0100085F010008E0
:100080005F0100085F0100085F0100085F010008D0
:100090005F0100085F0100085F0100085F010008C0
:1000A0005F0100085F0100085F0100085F010008B0
:1000B0005F0100085F0100085F0100085F010008A0
:1000C0005F0100085F0100085F0100085F01000890
:1000D0005F0100085F0100085F0100085F01000880
:1000E0005F0100085F0100085F0100085F01000870
:1000F0005F0100085F0100085F0100085F01000860
:100100005F0100085F0100085F0100085F0100084F
:100110005F0100085F0100085F0100085F0100083F
:100120005F0100085F0100085F0100085F0100082F
:10013000DFF80CD000F060F900480047015F0008CC
:1001400048CD00200648804706480047FEE7FEE706
:10015000FEE7FEE7FEE7FEE7FEE7FEE7FEE7FEE777
:100160003159000831010008202A04DB203A21FA25
:1001700002F00021704721FA02F3D040C2F12002C0
:100180009140084319467047D2B201E000F8012BB4
:10019000491EFBD270470022F6E710B513460A4607
:1001A00004461946FFF7F0FF204610BD2DE9FE4F2B
:1001B00081EA030404F0004421F0004100944FF070
:1001C000000B23F0004350EA01045ED052EA03041E
:1001D0005BD0C3F30A54C1F30A552C44A4F2F334A0
:1001E0000194A0FB0254C1F3130141F48011C3F345
:1001F000130343F4801301FB024400FB034E840A03
:10020000970A44EA815447EA8357A4FB076802959A
:100210008D0A05FB07854FEA932C04FB0C54270538
:10022000029D4FEA065847EA1637B5EB08056EEB14
:10023000070C870E920E47EA811742EA8312A7FB4A
:100240000201B6EB0B0164EB00042B0D43EA0C3307
:100250005E1844EB1C50DA465146E7FB0201C5F339
:1002600013044FEA0B3343EA14534FEA0432019C60
:1002700043EA0603A4F10C040294009CCDE900B407
:1002800000F06CF803B0BDE8F08F00200146F9E7FC
:100290000EB540F2334102910021CDE900110A462A
:1002A0000B4600F05BF803B000BDC1F30A5210B575
:1002B000C1F3130140F2FF3341F480119A4201DA95
:1002C000002010BD40F233439A42A2F2334203DCD5
:1002D0005242FFF749FF10BD904010BD2DE9F05F7D
:1002E0000546002092469B468846064681464024A5
:1002F0001BE02846414647462246FFF735FF534656
:100300005A46C01A914110D311461846224600F0B1
:1003100085F82D1A67EB01084F462246012000217F
:1003200000F07CF817EB00094E41201EA4F10104F7
:10033000DFDC484631462A464346BDE8F09F10B50B
:10034000141E73F1000408DA401C41F100019218F8
:100350005B411A4301D120F0010010BD2DE9F04DA1
:1003600092469B4611B1B1FA81F202E0B0FA80F2F6
:100370002032904600F052F804460F4640EA0A0048
:1003800041EA0B0153465A46084313D0114653EA3B
:10039000010019D0C8F140025046FFF7E5FE0546BE
:1003A0000E4650465946424600F038F8084305D0FC
:1003B000012004E020463946BDE8F08D00200543C9
:1003C00046EAE0762C4337430A986305E40AA0EB3B
:1003D00008000022FD0A44EA47540A3002D50020F2
:1003E0000146E9E7010510196941DDE908450019F1
:1003F0006941BDE8F04DA2E7064C074D06E0E06814
:1004000040F0010394E8070098471034AC42F6D35B
:10041000FFF792FE7860000898600008202A04DB4D
:10042000203A00FA02F1002070479140C2F1200307
:1004300020FA03F3194390407047017E012901D04F
:1004400004F069BD04F0CCBC70B50446C069002856
:1004500023D0606900F0D0F8E06900F07FF905462C
:10046000207E012803D1208A00F0AEF92082626943
:10047000A088E1885278401B891A628801EBD1710B
:1004800002EB6101228800EBD07002EB6000228A4F
:10049000E369BDE8704000F01FB870BDFEE7C0081A
:1004A000C002890840EA411040EAD20070470000CB
:1004B00070B51E461546044604F0FEF904F09CFA99
:1004C000034802E00680641CA4B2AC42FAD370BDBB
:1004D0000008006C01F0ECB92DE9F0411C4616460D
:1004E0000F4605460CE0234632463946284600F0C2
:1004F0001FF821787F2901D9A41C00E0641C054461
:1005000020780028EFD1A8B2BDE8F0812DE9F041B4
:100510001E46154607460C4606E03246214638463A
:10052000FFF7D8FF641CA4B2AC42F6D3BDE8F0815B
:100530002DE9FC41154D8046164628680F46846813
:1005400018787F2805D9188840BA00F01BF900E018
:100550000C462188814202D86188814202D2A1687A
:100560000029F5D122886168801A2A6811F8304084
:1005700004235278CDE9007603EBC00043460858C7
:10058000214605F018FB2046BDE8FC81180000203C
:100590002DE9F0471E461546894682460024DFF8BD
:1005A0003480089F12E000BF09EB040081B250467E
:1005B00004F082F904F020FA0020414602E00F80A6
:1005C000401C80B2A842FAD3641CA4B2B442EBD35C
:1005D000BDE8F0870008006C014800687047000023
:1005E0001800002010B5044601F0EAF92046BDE8E5
:1005F000104001F08DB8000001490860704700000C
:1006000018000020704710B50446FFF716FF20467B
:10061000BDE81040FFF718BF30B5B3F5804F05D0E7
:100620006FF0704140F82210002030BD8C690B68DB
:100630008D6823434C688989240144EA05242343B7
:1006400043EA014150F82230014C23401943E9E7C5
:100650000000F0CF30B50A6850F8223023F00103D3
:1006600040F822308C68204B4A68082C1ED0224368
:10067000D1E903452C4322434C6922438C69224330
:10068000CC6922430C6A22434C6A22438C6A22437F
:10069000CC6A22430C6B0968224350F821401C406D
:1006A00052EA040240F82120002030BDD1E9034580
:1006B00042F008022C4322434C6922438C692243B6
:1006C000CC6922430C6A22434C6A22438C6A22433F
:1006D000CC6A22430C6B0968224350F821401C402D
:1006E000224342F04002DDE78100F7FF30B5D1E957
:1006F000003443EA04138C688D89240244EA0544DB
:1007000023430C8A094D00EB820005EB045423437C
:100710000C7D6D0105EB0464896923430B4341683B
:1007200001F040410B434360002030BD0000F0FF6A
:100730000021094A01E0491C89B232F81130834294
:1007400002D00229F7D301E0022901D3202070470B
:1007500002EB4100408870477460000830B50446E1
:1007600000250AE0204600F00FF8284485B22078E2
:100770007F2801D9A41C00E0641C20780028F1D156
:10078000284630BDFFF7D4BF0E4910B509688C6804
:1007900001787F2904D9008840BAFFF7F3FF02E00F
:1007A000084600E00C462188814202D861888142D7
:1007B00002D2A1680029F5D122886168801A11F857
:1007C000300010BD180000204FF6FF71081A704766
:1007D00070B5044600F042F90546601C02D004489A
:1007E0000078044400F03AF9401BA042FAD370BDEF
:1007F0000800002030B5174885B00168002927D1CE
:10080000012101601448416941F4807141614069EE
:10081000022400F48070049041F20100CDE900044C
:100820000325694603950D4800F01EF84FF68070C9
:10083000CDE9000469460395094800F015F84CF22B
:100840003370CDE9000469460395064800F00CF8C2
:1008500005B030BD00000020001002400020014023
:1008600000180140001401402DE9F84FDFF8B8A14D
:1008700000220AF1040B144601274FF00F090BF177
:10088000040E00BF0B6807FA04F52B40AB4274D18D
:10089000DFF898C14E68A6EB0C0866452BD00DDC3E
:1008A000032E34D005DC36B3012E19D0022E2FD101
:1008B0001BE0112E16D0122E2AD119E0B8F5881F90
:1008C00019D006DCB8F5803F15D0B8F5801F1FD1D0
:1008D00011E0B8F5001F0ED0B8F5041F18D10AE0DA
:1008E000CA6815E0CA68121D12E0CA6808320FE033
:1008F000CA680C320CE08A682AB1012A4FF008025B
:1009000003D0456104E0042202E0056100E000221A
:10091000FF2B01D8064601E000F104064FEA8405EA
:1009200001D9A5F12005D6F800C009FA05F82CEA8E
:10093000080C02FA05F54CEA050CC6F800C04D6833
:10094000ED006AD53A4DAE6946F00106AE61AD697B
:1009500024F0030605F001050095364D06EB050C65
:10096000DCF80850A6074FEA167809FA08F6B543EE
:10097000314EB04202D100261AE04EE02F4EB04276
:1009800001D1012614E02E4EB04201D102260FE023
:100990002C4EB04201D103260AE02B4EB04201D1C9
:1009A000042605E0294EB04201D1052600E00626C6
:1009B00006FA08F62E43CCF808604D68DAF80060B5
:1009C000ED03554601D51E4300E09E432E604D6861
:1009D000AD0305D5DBF800601E43CBF8006004E0F2
:1009E000DBF800509D43CBF800504D68DEF8006006
:1009F000ED02754601D51E4300E09E432E604D6812
:100A0000AD0205D5084D0C352E681E432E6004E05E
:100A1000054E0C3635689D433560641C102CFFF480
:100A200031AFBDE8F88F0000000401400000111054
:100A3000001002400000014000080140000C01408D
:100A4000001001400014014000180140001C01404A
:100A50000AB1016170470904FBE7000001488068A2
:100A600070470000080000200248816802781144A5
:100A70008160704708000020074810B5016841F008
:100A800010010160032000F091F8002000F006F84A
:100A900000F024F8002010BD0020024070B50D4D7C
:100AA00004464FF47A712878B1FBF0F00A490968DE
:100AB000B1FBF0F000F058FD48B9102C07D200222D
:100AC0002146501E00F052F800206C6070BD0120DD
:100AD00070BD00000800002014000020214808B567
:100AE000816941F001018161816901F00101009199
:100AF000C16941F08051C161C06900F0805000902F
:100B0000032000F053F8002211466FF00B0000F0B4
:100B10002DF8002211466FF00A0000F027F800229D
:100B200011466FF0090000F021F800221146501F15
:100B300000F01CF800221146101F00F017F80022E8
:100B40001146901E00F012F800221146501E00F0CF
:100B50000DF80548416821F0E06141F00071416005
:100B600008BD00000010024000000140F0B40E4B30
:100B70001B680C46C3F30223C3F10705042D00D9FB
:100B80000425191D072901D2002300E0DB1E0126E0
:100B900006FA05F1491E214099409E40761E1640F6
:100BA0003143F0BC04F0EAB80CED00E0064900F077
:100BB000070208684FF6FF03184040EA0220034A84
:100BC00010430860704700000CED00E00000FA05DB
:100BD0002DE9F047DFF83C8105460E46D8F80000C5
:100BE00000F00700B0420CD2D8F8001021F0070145
:100BF0003143C8F80010D8F8000000F00700B042F8
:100C000063D12878444C800705D56068A96820F036
:100C1000F000084360602878C00745D06868012864
:100C200016D02168022816D0890700294DDA61689C
:100C300021F0030101436160FFF710FF6968074677
:100C400041F2883001290FD00229814619D027E0CE
:100C500021688903E9E78901E7E700BFFFF7FEFEA6
:100C6000C11B494501D918E081466068C0F3810085
:100C70000128F3D118E000BFFFF7F0FEC11B494582
:100C80000BD86068C0F381000228F5D10CE000BFEA
:100C9000FFF7E4FEC11B494502D90320BDE8F087F8
:100CA000606810F00C0FF3D1D8F80010404601F046
:100CB0000701B1420BD9016821F0070131430160FE
:100CC000006800F00700B04201D00120E6E7287874
:100CD000400705D56068E96820F4E060084360607B
:100CE0002878000706D56068296920F4605040EA3A
:100CF000C100606000F03CF86168084AC1F303116C
:100D0000515CC840064908600020FFF7C7FE00207C
:100D1000C4E700000020024000100240F05F00081D
:100D200014000020014800687047000014000020F3
:100D30000448054900684968044AC1F30221515C2E
:100D4000C8407047140000200010024000600008F6
:100D50000448054900684968044AC1F3C221515C4E
:100D6000C8407047140000200010024000600008D6
:100D700012A185B00FC98DE80F0014A0144A0068B5
:100D800004905168134801F00C03042B10D0082B79
:100D90000ED1C1F38343C9031DF803000AD551687E
:100DA00004AAC1F34041515C0A4A5043B0FBF1F040
:100DB00005B0704708494843FAE7000002030405FC
:100DC000060708090A0B0C0D0E0F10100102000097
:100DD0000010024000127A0000093D002DE9F84F92
:100DE00004460078B94DC00748D06868C0F3810058
:100DF000012807D06868C0F38100022809D168681B
:100E0000C00306D52868800338D5606800286FD0F5
:100E100034E06068B0F5803F0BD010B1B0F5A02F82
:100E200011D0286820F480302860286820F48020C1
:100E300002E0286840F480302860606888B1FFF7DD
:100E40000DFE064609E0286840F480202860F0E79F
:100E5000FFF704FE801B642875D828688003F7D547
:100E60000CE0FFF7FBFD064605E000BFFFF7F6FDCF
:100E7000801B6428F0D828688003F7D42078944E2B
:100E800080074FF001094FF000083BD5686810F06B
:100E90000C0F07D06868C0F38100022809D1686888
:100EA000C00306D42868800714D5206901281FD103
:100EB00010E02069B0B1C6F80090FFF7CFFD0746FB
:100EC00005E000BFFFF7CAFDC01B0228C4D8286890
:100ED0008007F7D52868616920F0F80040EAC10072
:100EE00028600FE0C6F80080FFF7B8FD074606E06F
:100EF000E9E000BFFFF7B2FDC01B022823D8286835
:100F00008007F7D4207800072CD57248A169D9B1A1
:100F1000C0F80090FFF7A2FD074604E0FFF79EFD32
:100F2000C01B02280FD8686A8007F7D56A484FF4BB
:100F3000FA510068B0FBF1F0009000BF0098411E2C
:100F40000091FAD20EE080E0C0F80080FFF786FD45
:100F5000074604E0FFF782FDC01B022875D8686AC7
:100F60008007F7D42078400760D5E8690027C000E3
:100F700008D4E86940F08050E861E869012700F092
:100F80008050009055480168C90513D40168834614
:100F900041F480710160FFF761FD824606E000BF09
:100FA000FFF75CFDA0EB0A0064284ED8DBF80000D8
:100FB000C005F5D5E06801280AD008B1052813D08E
:100FC000286A20F001002862286A20F0040002E06C
:100FD000286A40F001002862E06841F2883B98B13D
:100FE000FFF73CFD82460BE0286A40F004002862CF
:100FF000EEE700BFFFF732FDA0EB0A0159455AD8D2
:10100000286A8007F6D50CE0FFF728FD824605E048
:10101000FFF724FDA0EB0A0159454CD8286A800748
:10102000F6D41FB1E86920F08050E861E06988B328
:101030006968C1F38101022945D00228C6F86080A1
:1010400004D0FFF70BFD044638E034E0FFF706FD5F
:10105000074604E0FFF702FDC01B02282BD82868D2
:101060008001F7D4206AB0F5803F05D16868A16897
:1010700020F4003008436860D4E908010843696837
:1010800021F4741108436860C6F86090FFF7E6FC2D
:10109000044606E015E000BFFFF7E0FC001B022855
:1010A00009D828688001F7D50BE000BFFFF7D6FC10
:1010B000001B022802D90320BDE8F88F28688001B0
:1010C000F4D40020F8E70120F6E700000010024009
:1010D00000004242800442421400002000700040A0
:1010E000FEB5044603200D4684F83400606C0328E6
:1010F00020D0B5F5805F1DD0B5F5006F05D045B1A6
:10110000A06B40F00060A06309E0204604F0A1FB62
:1011100002E0204604F076FBA16B0143A163A06BC3
:10112000012658B1216840F2FF50886384F834608A
:101130000120FEBDA06B40F08050E4E7211DD4E902
:1011400005700EC90095CDE90170206803F09BFF82
:1011500084F834600020FEBD10B550F8742F120ED4
:101160000A7002684FF6FF73120C03EA02224A80EB
:101170000288C2F307234A881A434A80027812067B
:101180004A6042684B68120E43EA02424A60426873
:101190004B68C2F3074243EA02224A6082884B68E6
:1011A000C2F3072213434B6002790A728268120E5F
:1011B0004A728268120C1206CA600289CB68C2F3B6
:1011C000072243EA0242CA60027ACB6843EA02225B
:1011D000CA60C268CB6843EA1263CB60C2680B7C0A
:1011E000C2F3074243EA12130B741207120D4A822C
:1011F00082894B8AC2F3072213434B82007B40084B
:10120000087501204875002010BDF0B5426E120E21
:1012100093090B70C2F383034B7002F003028A70D0
:10122000426E120CCA70B0F86420120A0A7190F86B
:1012300064204A71826E4FF6FF73120E03EA0212A7
:10124000CA80826ECB88C2F3074243EA1213CB8076
:1012500002F00F020A72B0F86820C2F30722D30925
:101260004B72C2F380138B72C2F34013CB72C2F382
:1012700000130B7300264E73446C4FF40077012368
:101280006CB1012C43D0026840F2FF519163816B35
:1012900041F08051816380F834300120F0BD920725
:1012A000120D0A6190F868200C6944EA82020A6112
:1012B000C26E0C69120E44EA92140C61C2F3C204AD
:1012C0000C7502F007024A75C26EC2F30742540958
:1012D0008C75C2F38204CC759207520F0A76B0F86F
:1012E0006C20C2F307240A7E42EAD4120A760A6905
:1012F000521C42650D7EAD1CAA4042650D7A03FA70
:1013000005F585656D0A6A43C0E917271CE090F86A
:1013100068209206920A0A61C26E0C69120E44EAB3
:1013200002220A61C26E0C69C2F3074214430C61C7
:10133000B0F86C20C2F307240A69521C4FEA8222DB
:101340004265C0E916720766C4F3801201F8192FCE
:101350004FEA84624FEA52624A7010F86C2F4C7860
:1013600044EAD2144C7002F07F028A7042684FEA5D
:1013700012624FEAD214CC70C2F341140C71C2F362
:1013800082044C714FEA82724FEA12728A7142688B
:101390008C79C2F3074244EA92148C71C2F3401470
:1013A000CC710E7202F001024A728288C2F30722E7
:1013B0004FEAD2148C72C2F38014CC72C2F3401480
:1013C0000C73C2F300144C73C2F381048C7302F0EB
:1013D0000302CA7300794FEA500008744B744FF04F
:1013E0000000F0BD70B50446B0F8500000250104BF
:1013F000206803F090FF18B1A16B0143A16304E0E2
:101400000021206803F039FE0546C5F3432070BD76
:1014100070B5040004D094F83400002510B105E044
:10142000012070BD2577204600F038F8032084F8AD
:101430003400204600F008F8A5632563012084F8F5
:101440003400002070BD0000FEB500250446C32016
:101450000095CDE901502B462A462946206803F025
:1014600012FE0D4E46F8A05F206803F01EFE012517
:1014700035600220FFF7ACF9204604F072F920B97C
:10148000204604F0FBF8002805D084F83450A16B06
:101490000143A1630120FEBD0000304230B5006869
:1014A000104985B088421BD10F48416941F48061E1
:1014B00041614069022400F4806004904FF4F850C8
:1014C000CDE900040325694603950848FFF7CCF9E8
:1014D0000420CDE90004694603950548FFF7C4F9E7
:1014E00005B030BD008001400010024000100140F6
:1014F0000014014070B515460E46040003D094F860
:101500003D0010B107E0012070BD002084F83C00D0
:10151000204600F01AF804F108012068FFF79AF855
:101520003146A2682068FFF7E1F8D4E901022946B4
:10153000236BFFF771F8A168206850F8212042F072
:10154000010240F82120002070BDFFF753B94FF091
:10155000E0210428086903D020F0040008617047E6
:1015600040F00400FAE7704710B5401EB0F1807FEC
:1015700001D3012010BD4FF0E02460610F216017FE
:1015800003F0FCFB0020A06107202061002010BDBB
:1015900010B5FFF7E8FF10BD70B5040004D094F853
:1015A0003900002510B106E0012070BD84F83850E4
:1015B000204600F023F8242084F839002068C16810
:1015C00021F40051C160204604F0D6F92068016979
:1015D00021F4904101612068416921F02A014161B3
:1015E0002068C16841F40051C160E563202084F89F
:1015F000390084F83A00002070BD000010B5006882
:10160000114986B088421DD11048816941F480415A
:10161000816180690E4C00F4804004904FF40070AA
:101620000090022001900320039069462046FFF7B6
:101630001BF900212015CDE90001029169462046E1
:10164000FFF712F906B010BD00380140001002404B
:10165000000801402DE9F843044690F839001F4680
:1016600016460D46202850D1A5B19EB194F83800F9
:1016700001284AD0012084F838004FF00008C4F84F
:101680003C80212084F83900FFF7E8F9A6848146E0
:10169000E68426E00120BDE8F883E08C401EE0846B
:1016A000A0684B46B0F5805F4FF000024FF080011C
:1016B0002046009703D004F017FAE8B90DE004F0D3
:1016C00013FAC8B928882168C0F308004860206967
:1016D00008B16D1C05E0AD1C03E0216815F8010B95
:1016E0004860E08C0028D8D14B460022402120469B
:1016F000009704F0F9F908B10320CCE7202084F822
:10170000390084F838800020C5E70220C3E7FEE7EF
:101710002DE9F043174C8146002520886688464312
:10172000A088A0F5D041043902D1A079012807D0C2
:101730000021084603F0C0F803F05EF90E4814E0FB
:101740000020A0712A2767814FF02B08A4F80C8095
:10175000014603F0B1F80120A071A4F80A80A78126
:10176000EAE700BFA0F800906D1CB542FAD3BDE8CF
:10177000F0830000280100200008006C2DE9F04FE4
:101780004A492A242B25898845F2105A4FF4305BA8
:101790004FF4285E4FF448764FF0F00C49F241398F
:1017A0004FF4A07345F210374FF4F07280B13F4808
:1017B0004FF00108494580F806800380A0F802C078
:1017C00001D0B9423ED12C2606814481858157E063
:1017D00036484FF00008494580F80680A0F800C060
:1017E000438006D0A1F5D04CBCF1040C01D0B94225
:1017F0000CD12C2606814481A1F5D0448581043C7E
:1018000001D0B94244D10380428041E0514507D123
:10181000A0F808B0A0F80AE04FF42C5181810EE046
:10182000A1F5C853633B06D02221018120214181CB
:10183000212181812CE02C2101814581848102803C
:10184000468025E0A1F5D04CBCF1040C09D05145EF
:101850000BD1A0F808B0A0F80AE04FF42C54848112
:1018600021E02C260681458109E0A1F5C85CBCF188
:10187000630C12D0222404812124448120248481F9
:10188000A1F5D044043C01D0B94201D1028043808B
:10189000BDE8F04F002002F03BBF4FF02C0CA0F849
:1018A00008C04481858106804280E9E72801002044
:1018B0002DE9F04FDFF800810C460146060A40464C
:1018C0009346B8F80450DFF8F4A08289230A4089CF
:1018D000A5F513470AF10209413F19D0A5F5A6471E
:1018E000103F15D0A5F5AA47103F15D04746A5F5DE
:1018F000C85CBE793F887F1A7F1EBCF1630C20D084
:10190000A5F5D04CBCF1040C33D0012E43D043E0FC
:101910005546AAF8000033E0AAF80000A9F80060D4
:10192000401CAAF80000C8B2A9F80000AAF80020DC
:10193000A9F80030521CAAF80020E0B2A9F8000073
:1019400031E006B9B9B2AAF800000D0A4846A9F874
:101950000050CFB2A9F80070A9F80050C9B2A9F898
:101960000010AAF80020A9F80030E1B2A9F8001090
:101970000DE0012E00D1B9B25546AAF800000E0ABA
:101980004846A9F80060C9B2A9F800102A8003806F
:10199000E1B2018007E0B9B203F038F8B8F80C0002
:1019A000214603F033F8B8F80810AAF80010A9F897
:1019B00000B0BDE8F08F000028010020FE07006C99
:1019C0002DE9F05F3220FEF703FF002002F07AFEDF
:1019D000FE4EFF4D49F24139AC1CB08046F6040A78
:1019E00045F2103B45F210574FF6FF78FF2804D31D
:1019F000404502D0B0F5134F4AD1D320288020882B
:101A000020882188404608EA012221881143B180BC
:101A100049453DD0BF2129802188218821882188FE
:101A2000228800EA01210A43B280524530D0D421F5
:101A30002980218821882188228800EA01210A43FF
:101A4000B2805A4524D04FF45A41298021884FF45E
:101A50005B41298021884FF45C4200EA01212A8001
:101A600022880A43B280B2F5004F7DD0BA420FD02F
:101A7000A121298021882188208808EA01210843A2
:101A8000A0F5AE41B080613902D141F66310B0805B
:101A9000B188D0A004F070F8B08848457ED1CF203E
:101AA000288000202080C120208030202080ED2050
:101AB0002880642020800320208012202080812024
:101AC0002080E820288085202080102020807A2017
:101AD0002080CB202880392020802C2020800020CE
:101AE00020803420208002202080F72028802020A1
:101AF0002080EA202880002020802080C0202880AC
:101B00001B202080C120288001202080C520288023
:101B1000302020802080C7202880B72020803620D9
:101B20002880482020803A20288055202080B1201D
:101B30002880002020801A202080B62028800A20BB
:101B40002080A2202080F2202880002020802620D3
:101B5000288001202080E02028800F2020802A205B
:101B600020802820208000E049E0082020800E20EE
:101B700020800820208054202080A920208043201D
:101B800020800A2020800F202080002020802080BC
:101B900020802080E1202880002000E031E02080AB
:101BA00015202080172020800720208011202080F1
:101BB000062020802B202080562020803C20208062
:101BC00005202080102020800F2020803F202080B2
:101BD00020800F2020802B20288000202080208043
:101BE000012020803F2020802A2028800020208083
:101BF00020802080EF202080112028806EE0B78098
:101C000046E7504570D1112028801420FEF7E0FDF2
:101C1000D020288007202080422020801D20208086
:101C2000D1202880002020801A20208009202080B8
:101C3000D22028800120208022202080C0202880DF
:101C4000102020803B202080002020800220208047
:101C500011202080C520288003202080C8202880D3
:101C60000020208025202080212020800520208029
:101C7000002020800A2020806520208025202080D0
:101C800077202080502020800F202080002020807E
:101C9000F820288001202080FE202880002020803D
:101CA00002202080202028803620288008202080C4
:101CB0003A202880552020802B202880002020805A
:101CC0002080012020803F2020802A2028800020A2
:101CD0002080208001202080DF2020807820FEF7D7
:101CE00077FD2920FEE3FFE758457BD1ED202880D2
:101CF00001202080FE202080EE202880DE20208011
:101D000021202080F120288001202080DF202880D1
:101D100010202080C42028808F202080C62028808A
:101D200000202080E220208020802080BF2028808A
:101D3000AA202080B02028800D2020800020208034
:101D40000D20208000202080112020800020208075
:101D50001920208000202080212020800020208049
:101D60002D202080002020803D2020800020208009
:101D70005D202080002020805D20208000202080A9
:101D8000B120288080202080002020808B2020808F
:101D9000002020809620208000202080B2202880F3
:101DA000002020802080022020800020208003202E
:101DB000208000202080B3202880002020802080E8
:101DC000208020802080208020800CE028010020BE
:101DD000FE07006C204C43442049443A25780D0A04
:101DE00000000000FEE320802080208020802080F2
:101DF00020802080208020802080208020802080E3
:101E00002080208020802080B42028808B2020808B
:101E1000002020809620208000202080A12020808B
:101E200000202080B52028800220208000202080F3
:101E3000032020800020208004202080002020809B
:101E4000B6202880002020802080B7202880002015
:101E5000208020803F202080002020805E20208065
:101E60000020208064202080002020808C20208082
:101E700000202080AC20208000202080DC202080DA
:101E80000020208070202080002020809020208052
:101E900000202080EB20208000202080DC2020807B
:101EA00000202080B82028800020208020802080F2
:101EB00020802080208020802080BA20288024203C
:101EC00020800020208020802080C12028802020A9
:101ED0002080002020805420208000202080FF20AF
:101EE000208000202080C22028800A20208000201E
:101EF00020800420208000202080C32028803C20D7
:101F00002080002020803A2020800020208039205E
:101F100020800020208037202080002020803C204E
:101F20002080002020803620208000202080322049
:101F30002080002020802F202080002020802C2046
:101F40002080002020802920208000202080262042
:101F50002080002020802420208000202080242039
:101F600020800020208023202080002020803C2012
:101F700020800020208036202080002020803220F9
:101F80002080002020802F202080002020802C20F6
:101F900020800020208029202080002020802620F2
:101FA00020800020208024202080002020802420E9
:101FB0002080002020802320208000202080C4203A
:101FC00028806220208000202080052020800020A2
:101FD00020808420208000202080F020208000208D
:101FE00020801820208000202080A4202080002035
:101FF0002080182020800020208050202080002079
:1020000020800C20208000202080172020800020AD
:1020100020809520208000202080F3202080002038
:102020002080E620208000202080C52028803220CB
:1020300020800020208044202080002020806520F7
:102040002080002020807620208000202080882092
:10205000208000202080C620288020202080002092
:102060002080172020800020208001202080002058
:102070002080C72028800020208020802080208091
:10208000C820288000202080208020802080C92037
:1020900028800020208020802080208020802080B8
:1020A0002080208020802080208020802080208030
:1020B00020802080E02028801620208000202080A2
:1020C0001C202080002020802120208000202080D3
:1020D0003620208000202080462020800020208084
:1020E000522020800020208064202080002020803A
:1020F0007A202080002020808B20208000202080DB
:102100009920208000202080A8202080002020808E
:10211000B920208000202080C42020800020208042
:10212000CA20208000202080D22020800020208013
:10213000D920208000202080E020208000202080E6
:10214000F320208000202080E1202880162020809D
:10215000002020801C202080002020802220208041
:1021600000202080362020800020208045202080F4
:1021700000202080522020800020208064202080A9
:10218000002020807A202080002020808B2020804A
:10219000002020809920208000202080A8202080FE
:1021A00000202080B920208000202080C4202080B2
:1021B00000202080CA20208000202080D220208083
:1021C00000202080D820208000202080E020208057
:1021D00000202080F320208000202080E220288022
:1021E00005202080002020800B20208000202080DF
:1021F0001B20208000202080342020800020208090
:1022000044202080002020804F202080002020803B
:1022100061202080002020807920208000202080E4
:10222000882020800020208097202080002020808F
:10223000A620208000202080B72020800020208041
:10224000C220208000202080C72020800020208005
:10225000D120208000202080D620208000202080D7
:10226000DD20208000202080F3202080002020809E
:10227000E320288005202080002020800A20208064
:10228000002020801C2020800020208033202080FF
:1022900000202080442020800020208050202080AA
:1022A0000020208062202080002020807820208054
:1022B00000202080882020800020208097202080FF
:1022C00000202080A620208000202080B7202080B1
:1022D00000202080C220208000202080C720208075
:1022E00000202080D120208000202080D520208048
:1022F00000202080DD20208000202080F32020800E
:1023000000202080E42028800120208000202080E0
:1023100001202080002020800220208000202080BA
:102320002A202080002020803C2020800020208047
:102330004B202080002020805D20208000202080F5
:102340007420208000202080842020800020208095
:102350009320208000202080A22020800020208048
:10236000B320208000202080BE20208000202080FC
:10237000C420208000202080CD20208000202080CC
:10238000D320208000202080DD202080002020809D
:10239000F320208000202080E5202880002020805D
:1023A0002080208020800220208000202080292082
:1023B0002080002020803C202080002020804B2096
:1023C0002080002020805D2020800020208074203C
:1023D00020800020208084202080002020809320E6
:1023E000208000202080A220208000202080B32098
:1023F000208000202080BE20208000202080C4205B
:10240000208000202080CD20208000202080D3202C
:10241000208000202080DC20208000202080F320ED
:10242000208000202080E6202880112020800020AD
:102430002080342020800020208056202080002012
:10244000208076202080002020807720208000209F
:10245000208066202080002020808820208000208E
:1024600020809920208000202080BB202080002018
:10247000208099202080002020806620208000205D
:1024800020805520208000202080552020800020A2
:1024900020804520208000202080432020800020B4
:1024A00020804420208000202080E72028803220C7
:1024B0002080002020805520208000202080762051
:1024C000208000202080662020800020208067203F
:1024D000208000202080672020800020208087200E
:1024E000208000E0BBE00020208099202080002098
:1024F0002080BB2020800020208099202080002088
:102500002080772020800020208044202080002010
:102510002080562020800020208023202080002042
:102520002080332020800020208045202080002033
:102530002080E82028800020208020809920208092
:10254000002020808720208000202080882020807C
:10255000002020807720208000202080662020809E
:10256000002020808820208000202080AA20208039
:1025700000202080BB202080002020809920208007
:102580000020208066202080002020805520208090
:1025900000202080552020800020208044202080A2
:1025A0000020208044202080002020805520208092
:1025B00000202080E9202880AA2020800020208080
:1025C000208020802880AA202080CF202880002002
:1025D00020802080208020802080208020802080FB
:1025E000208000E03EE0208020802080208020802D
:1025F000208020802080F020288000202080502013
:1026000020800020208020802080F320288000204F
:102610002080F9202880062020801020208029207A
:102620002080002020803A20288055202080112002
:1026300028806420FEF7CCF82920288035202880C7
:102640000020208051202880FF20208053202880D7
:102650002C20208055202880822020802C2028803B
:1026600002F021B8B8427DD14FF47043552118468D
:1026700002F0CCF94FF20104AA21204602F0C6F97B
:10268000661C5221304602F0C1F9A71C08213846C9
:1026900002F0BCF94FF204090121484602F0B6F9F4
:1026A0000D214FF4304002F0B1F90D214BF2010041
:1026B00002F0ACF90D214BF2020002F0A7F94FF441
:1026C000364A3421504602F0A1F934214BF2016020
:1026D00002F09CF934214BF2026002F097F94FF4BA
:1026E000314B0D21584602F091F90D214BF20110AA
:1026F00002F08CF90D214BF2021002F087F934211F
:102700004FF4374002F082F934214BF2017002F0AD
:102710007DF934214BF2027002F078F900214FF478
:10272000324002F073F900214BF2012002F06EF901
:1027300000214BF2022002F069F924214FF43840C5
:1027400002F064F924214BF6010002F05FF9242124
:102750004BF6020002F05AF901214FF43F4002F01B
:1027600055F900E0FDE30F214FF4334002F04EF93C
:102770000F214BF2013002F049F90F214BF20230E8
:1027800002F044F934214FF4394002F03FF934218A
:102790004BF6011002F03AF934214BF6021002F028
:1027A00035F908214FF4354002F030F908214BF299
:1027B000015002F02BF908214BF2025002F026F9E9
:1027C00003214FF4424002F021F924214FF43A4012
:1027D00002F01CF924214BF6012002F017F9242104
:1027E0004BF6022002F012F900214FF43C4002F0B7
:1027F0000DF978214BF6014002F008F900214BF663
:10280000024002F003F900214FF43D4002F0FEF8CF
:1028100078214BF6015002F0F9F800214BF60250F6
:1028200002F0F4F800214FF43E4002F0EFF864218A
:102830004BF6016002F0EAF800214FF4514002F03B
:10284000E5F833214DF2011002F0E0F800214DF2DD
:10285000021002F0DBF834214DF2031002F0D6F83A
:1028600000214DF2041002F0D1F83A214DF205108A
:1028700002F0CCF800214DF2061002F0C7F84A2110
:102880004DF2071002F0C2F800214DF2081002F0DC
:10289000BDF85C214DF2091002F0B8F800214DF2AC
:1028A0000A1002F0B3F881214DF20B1002F0AEF8DD
:1028B00000214DF20C1002F0A9F8A6214DF20D10E6
:1028C00002F0A4F800214DF20E1002F09FF8E5216D
:1028D0004DF20F1002F09AF801214DF2101002F0A3
:1028E00095F813214DF2111002F090F801214DF2EC
:1028F000121002F08BF854214DF2131002F086F8FA
:1029000001214DF2141002F081F882214DF21510D0
:1029100002F07CF801214DF2161002F077F8CA217E
:102920004DF2171002F072F802214DF2181002F069
:102930006DF800214DF2191002F068F802214DF2F5
:102940001A1002F063F801214DF21B1002F05EF83C
:1029500002214DF21C1002F059F834214DF21D10E5
:1029600002F054F802214DF21E1002F04FF86721D8
:102970004DF21F1002F04AF802214DF2201002F031
:1029800045F884214DF2211002F040F802214DF269
:10299000221002F03BF8A4214DF2231002F036F889
:1029A00002214DF2241002F031F8B7214DF225102A
:1029B00002F02CF802214DF2261002F027F8CF2168
:1029C0004DF2271002F022F802214DF2281002F0F9
:1029D0001DF8DE214DF2291002F018F802214DF207
:1029E0002A1002F013F8F2214DF22B1002F00EF82B
:1029F00002214DF22C1002F009F8FE214DF22D10AB
:102A000002F004F803214DF22E1001F0FFFF102117
:102A10004DF22F1001F0FAFF03214DF2301001F0BA
:102A2000F5FF33214DF2311001F0F0FF03214DF29B
:102A3000321001F0EBFF6D214DF2331001F0E6FF93
:102A400000214FF4524001F0E1FF33214DF201200B
:102A500001F0DCFF00214DF2022001F0D7FF34210C
:102A60004DF2032001F0D2FF00214DF2042001F0CD
:102A7000CDFF3A214DF2052001F0C8FF00214DF2B3
:102A8000062001F0C3FF4A214DF2072001F0BEFFEE
:102A900000214DF2082001F0B9FF5C214DF2092020
:102AA00001F0B4FF00214DF20A2001F0AFFF8121B7
:102AB0004DF20B2001F0AAFF00214DF20C2001F095
:102AC000A5FFA6214DF20D2001F0A0FF00214DF23F
:102AD0000E2001F09BFFE5214DF20F2001F096FF43
:102AE00001214DF2102001F091FF13214DF2112030
:102AF00001F08CFF01214DF2122001F087FF5421DB
:102B00004DF2132001F082FF01214DF2142001F05B
:102B10007DFF82214DF2152001F078FF01214DF259
:102B2000162001F073FFCA214DF2172001F06EFF4D
:102B300002214DF2182001F069FF00214DF2192009
:102B400001F064FF02214DF21A2001F05FFF012124
:102B50004DF21B2001F05AFF02214DF21C2001F022
:102B600055FF34214DF21D2001F050FF02214DF29E
:102B70001E2001F04BFF67214DF21F2001F046FFA0
:102B800002214DF2202001F041FF84214DF221204D
:102B900001F03CFF02214DF2222001F037FFA42179
:102BA0004DF2232001F032FF02214DF2242001F0EA
:102BB0002DFFB7214DF2252001F028FF02214DF213
:102BC000262001F023FFCF214DF2272001F01EFF28
:102BD00002214DF2282001F019FFDE214DF22920BB
:102BE00001F014FF02214DF22A2001F00FFFF22123
:102BF0004DF22B2001F00AFF02214DF22C2001F0B2
:102C000005FFFE214DF22D2001F000FF03214DF2C2
:102C10002E2001F0FBFE10214DF22F2001F0F6FED8
:102C200003214DF2302001F0F1FE33214DF231202D
:102C300001F0ECFE03214DF2322001F0E7FE6D21A0
:102C40004DF2332001F0E2FE00214FF4534001F039
:102C5000DDFE33214DF2013001F0D8FE00214DF2AE
:102C6000023001F0D3FE34214DF2033001F0CEFEEC
:102C700000214DF2043001F0C9FE3A214DF2053039
:102C800001F0C4FE00214DF2063001F0BFFE4A21E2
:102C90004DF2073001F0BAFE00214DF2083001F08C
:102CA000B5FE5C214DF2093001F0B0FE00214DF27D
:102CB0000A3001F0ABFE81214DF20B3001F0A6FE8F
:102CC00000214DF20C3001F0A1FEA6214DF20D3095
:102CD00001F09CFE00214DF20E3001F097FEE5213F
:102CE0004DF20F3001F092FE01214DF2103001F053
:102CF0008DFE13214DF2113001F088FE01214DF2BD
:102D0000123001F083FE54214DF2133001F07EFEAB
:102D100001214DF2143001F079FE82214DF215307F
:102D200001F074FE01214DF2163001F06FFECA2150
:102D30004DF2173001F06AFE02214DF2183001F019
:102D400065FE00214DF2193001F060FE02214DF2C6
:102D50001A3001F05BFE01214DF21B3001F056FEEE
:102D600002214DF21C3001F051FE34214DF21D3094
:102D700001F04CFE02214DF21E3001F047FE6721AA
:102D80004DF21F3001F042FE02214DF2203001F0E1
:102D90003DFE84214DF2213001F038FE02214DF23A
:102DA000223001F033FEA4214DF2233001F02EFE3B
:102DB00002214DF2243001F029FEB7214DF22530D9
:102DC00001F024FE02214DF2263001F01FFECF213A
:102DD0004DF2273001F01AFE02214DF2283001F0A9
:102DE00015FEDE214DF2293001F010FE02214DF2D8
:102DF0002A3001F00BFEF2214DF22B3001F006FEDD
:102E000002214DF22C3001F001FEFE214DF22D3059
:102E100001F0FCFD03214DF22E3001F0F7FD1021F1
:102E20004DF22F3001F0F2FD03214DF2303001F070
:102E3000EDFD33214DF2313001F0E8FD03214DF27B
:102E4000323001F0E3FD6D214DF2333001F0DEFD53
:102E500000214FF4544001F0D9FD33214DF20140DF
:102E600001F0D4FD00214DF2024001F0CFFD3421EC
:102E70004DF2034001F0CAFD00214DF2044001F083
:102E8000C5FD3A214DF2054001F0C0FD00214DF293
:102E9000064001F0BBFD4A214DF2074001F0B6FDAE
:102EA00000214DF2084001F0B1FD5C214DF20940D6
:102EB00001F0ACFD00214DF20A4001F0A7FD812197
:102EC0004DF20B4001F0A2FD00214DF20C4001F04B
:102ED0009DFDA6214DF20D4001F098FD00214DF21F
:102EE0000E4001F093FDE5214DF20F4001F08EFD03
:102EF00001214DF2104001F089FD13214DF21140E6
:102F000001F084FD01214DF2124001F07FFD5421BA
:102F10004DF2134001F07AFD01214DF2144001F011
:102F200075FD82214DF2154001F070FD01214DF239
:102F3000164001F06BFDCA214DF2174001F066FD0D
:102F400002214DF2184001F061FD00214DF21940BF
:102F500001F05CFD02214DF21A4001F057FD012104
:102F600000E0FFE24DF21B4001F050FD02214DF266
:102F70001C4001F04BFD34214DF21D4001F046FD97
:102F800002214DF21E4001F041FD67214DF21F402C
:102F900001F03CFD02214DF2204001F037FD84217B
:102FA0004DF2214001F032FD02214DF2224001F0AC
:102FB0002DFDA4214DF2234001F028FD02214DF208
:102FC000244001F023FDB7214DF2254001F01EFD04
:102FD00002214DF2264001F019FDCF214DF227408C
:102FE00001F014FD02214DF2284001F00FFDDE2119
:102FF0004DF2294001F00AFD02214DF22A4001F074
:1030000005FDF2214DF22B4001F000FD02214DF2B1
:103010002C4001F0FBFCFE214DF22D4001F0F6FCAE
:1030200003214DF22E4001F0F1FC10214DF22F4012
:1030300001F0ECFC03214DF2304001F0E7FC3321BC
:103040004DF2314001F0E2FC03214DF2324001F03B
:10305000DDFC6D214DF2334001F0D8FC00214FF42E
:10306000554001F0D3FC33214DF2015001F0CEFC6C
:1030700000214DF2025001F0C9FC34214DF2035001
:1030800001F0C4FC00214DF2045001F0BFFC3A21D4
:103090004DF2055001F0BAFC00214DF2065001F04E
:1030A000B5FC4A214DF2075001F0B0FC00214DF271
:1030B000085001F0ABFC5C214DF2095001F0A6FC78
:1030C00000214DF20A5001F0A1FC81214DF20B507C
:1030D00001F09CFC00214DF20C5001F097FCA62160
:1030E0004DF20D5001F092FC00214DF20E5001F016
:1030F0008DFCE5214DF20F5001F088FC01214DF2CD
:10310000105001F083FC13214DF2115001F07EFCB0
:1031100001214DF2125001F079FC54214DF213506F
:1031200001F074FC01214DF2145001F06FFC82217A
:103130004DF2155001F06AFC01214DF2165001F0DC
:1031400065FCCA214DF2175001F060FC02214DF2DE
:10315000185001F05BFC00214DF2195001F056FCB3
:1031600002214DF21A5001F051FC01214DF21B5089
:1031700001F04CFC02214DF21C5001F047FC3421BF
:103180004DF21D5001F042FC02214DF21E5001F0A3
:103190003DFC67214DF21F5001F038FC02214DF239
:1031A000205001F033FC84214DF2215001F02EFC1F
:1031B00002214DF2225001F029FCA4214DF22350AE
:1031C00001F024FC02214DF2245001F01FFCB72134
:1031D0004DF2255001F01AFC02214DF2265001F06B
:1031E00015FCCF214DF2275001F010FC02214DF2C9
:1031F000285001F00BFCDE214DF2295001F006FCB5
:1032000002214DF22A5001F001FCF2214DF22B5027
:1032100001F0FCFB02214DF22C5001F0F7FBFE21E6
:103220004DF22D5001F0F2FB03214DF22E5001F032
:10323000EDFB10214DF22F5001F0E8FB03214DF280
:10324000305001F0E3FB33214DF2315001F0DEFB51
:1032500003214DF2325001F0D9FB6D214DF2335074
:1032600001F0D4FB00214FF4564001F0CFFB332195
:103270004DF2016001F0CAFB00214DF2026001F045
:10328000C5FB34214DF2036001F0C0FB00214DF27B
:10329000046001F0BBFB3A214DF2056001F0B6FB82
:1032A00000214DF2066001F0B1FB4A214DF20760AA
:1032B00001F0ACFB00214DF2086001F0A7FB5C219E
:1032C0004DF2096001F0A2FB00214DF20A6001F00D
:1032D0009DFB81214DF20B6001F098FB00214DF226
:1032E0000C6001F093FBA6214DF20D6001F08EFB06
:1032F00000214DF20E6001F089FBE5214DF20F60D7
:1033000001F084FB01214DF2106001F07FFB1321DD
:103310004DF2116001F07AFB01214DF2126001F0D3
:1033200075FB54214DF2136001F070FB01214DF249
:10333000146001F06BFB82214DF2156001F066FB19
:1033400001214DF2166001F061FBCA214DF21760B8
:1033500001F05CFB02214DF2186001F057FB0021E7
:103360004DF2196001F052FB02214DF21A6001F09A
:103370004DFB01214DF21B6001F048FB02214DF293
:103380001C6001F043FB34214DF21D6001F03EFB57
:1033900002214DF21E6001F039FB67214DF21F60E2
:1033A00001F034FB02214DF2206001F02FFB84215B
:1033B0004DF2216001F02AFB02214DF2226001F062
:1033C00025FBA4214DF2236001F020FB02214DF2E8
:1033D000246001F01BFBB7214DF2256001F016FBC4
:1033E00002214DF2266001F011FBCF214DF2276042
:1033F00001F00CFB02214DF2286001F007FBDE21F9
:103400004DF2296001F002FB02214DF22A6001F029
:10341000FDFAF2214DF22B6001F0F8FA02214DF293
:103420002C6001F0F3FAFE214DF22D6001F0EEFA6E
:1034300003214DF22E6001F0E9FA10214DF22F60C8
:1034400001F0E4FA03214DF2306001F0DFFA33219C
:103450004DF2316001F0DAFA03214DF2326001F0F1
:10346000D5FA6D214DF2336001F0D0FA552118469E
:1034700001F0CCFAAA21204601F0C8FA52213046C8
:1034800001F0C4FA0821384601F0C0FA002148468C
:1034900001F0BCFACC21584601F0B8FA00214BF2F9
:1034A000011001F0B3FA0521504601F0AFFA702186
:1034B0004FF4374001F0AAFA70214BF2017001F08D
:1034C000A5FA01214FF4384001F0A0FA03214BF690
:1034D000010001F09BFA03214BF6020001F096FA7D
:1034E00003214BF6030001F091FA02214FF43C4016
:1034F00001F08CFA00214BF6014001F087FA00211F
:103500004BF6024001F082FAD0214FF4494001F01D
:103510007DFA02214CF6011001F078FA50214CF6A8
:10352000021001F073FA50214CF6031001F06EFA0C
:1035300050214CF6041001F069FA00214FF4545068
:1035400001F064FA55214FF4685001F05FFA4FF42E
:10355000885028807720401EC0B2FCD24FF42450FF
:10356000FFF77DB8A0F513414FF480764FF4E06982
:1035700040F23F1B4FF4274A25392ED0A0F51341C6
:1035800040F2077728397DD0A0F513414FF4887AAF
:10359000203978D0A0F51341313975D0A0F5A84174
:1035A000083972D0A0F5A8514FF4407A05396DD092
:1035B000A0F5354105396AD0A0F54541053967D0F8
:1035C000A0F58A4131397CD0A0F58A41353979D0CE
:1035D000A0F5C851633976D0FEE347F6F001E52047
:1035E00001F014FA3146012001F010FA4946022098
:1035F00001F00CFA41F23001032001F007FA00213A
:10360000042001F003FA40F20221082001F0FEF943
:103610000021092001F0FAF900210A2001F0F6F951
:1036200000210C2001F0F2F900210D2001F0EEF94B
:1036300000210F2001F0EAF90021102001F0E6F945
:103640000721112001F0E2F90021122001F0DEF93A
:103650000021132001F0DAF90021072001F0D6F94A
:1036600041F29061102001F0D1F940F227211120A0
:1036700001F0CCF99D21122001F0C8F94FF4C85196
:10368000132006E081E03DE1E2E1B8E253E3FDE32F
:10369000FDE301F0BBF92521292001F0B7F90D2147
:1036A0002B2001F0B3F90721302001F0AFF940F2EF
:1036B0000331312001F0AAF90321322001F0A6F9EB
:1036C00002E0FCE3FCE3FCE340F20621352001F0DC
:1036D0009DF90821362001F099F940F20641372082
:1036E00001F094F94FF44171382001F08FF907216E
:1036F000392001F08BF940F202613C2001F086F99B
:1037000008213D2001F082F90021502001F07EF9CE
:10371000EF21512001F07AF90021522001F076F9D1
:103720005946532001F072F95146602001F06EF9BC
:103730000121612001F06AF900216A2001F066F997
:103740000021802001F062F90021812001F05EF962
:103750000021822001F05AF90021832001F056F95E
:103760000021842001F052F90021852001F04EF95A
:103770001021902001F04AF94FF4C061922001F02D
:1037800045F940F233110720FDE341F28F01EC20AF
:1037900001F03CF941F23421EF2001F037F93146D4
:1037A000012001F033F94946022001F02FF941F2DE
:1037B0003001032001F02AF90021042001F026F94C
:1037C00040F20221082001F021F90021092001F036
:1037D0001DF900210A2001F019F901210C2001F046
:1037E00015F900210D2001F011F900210F2001F041
:1037F0000DF90021102001F009F90721112001F035
:1038000005F90021122001F001F90021132001F037
:10381000FDF80121072001F0F9F83220FCF7D8FF6C
:1038200041F29041102001F0F1F840F227211120DF
:1038300001F0ECF83220FCF7CBFF8A21122001F0D6
:10384000E5F83220FCF7C4FF4FF4D051132001F00B
:10385000DDF80621292001F0D9F80D212B2001F0F7
:10386000D5F83220FCF7B4FF0021202001F0CEF87B
:103870000021212001F0CAF83220FCF7A9FF002125
:10388000302001F0C3F840F20461312001F0BEF8AD
:1038900040F20531322001F0B9F80021352001F065
:1038A000B5F840F60941362001F0B0F84FF4017147
:1038B000372001F0ABF840F20131382001F0A6F8D2
:1038C0003946392001F0A2F800213C2001F09EF891
:1038D00040F60A213D2001F099F83220FCF778FFEC
:1038E0000021502001F092F8EF21512001F08EF8D4
:1038F0000021522001F08AF85946532001F086F841
:10390000514651E10021084601F080F8314601207E
:1039100001F07CF84946022001F078F841F23001CC
:10392000032001F073F80021042001F06FF840F249
:103930000221082001F06AF80021092001F066F850
:1039400000210A2001F062F801210C2001F05EF84C
:1039500000210D2001F05AF800210F2001F056F847
:103960003220FCF735FF40F20111072001F04EF83C
:103970003220FCF72DFF4FF48651102001F046F85D
:103980000721112001F042F853465146122001F060
:103990003DF84FF43061132001F038F80021292060
:1039A00001F034F844F210012B2001F02FF800212F
:1039B000502001F02BF8EF21512001F027F80021D1
:1039C000522001F023F85946532001F01FF84FF41C
:1039D0001C51602001F01AF80121612001F016F855
:1039E00000216A2001F012F80021802001F00EF879
:1039F0000021812001F00AF80021822001F006F860
:103A00000021832001F002F80021842000F0FEFF55
:103A10000021852000F0FAFF1021902000F0F6FF31
:103A20000021922000F0F2FF0121932000F0EEFF30
:103A30001946952000F0EAFF0021972000F0E6FFEC
:103A40000021982000F0E2FF40F27311072085E387
:103A500041F21401E72000F0D9FF3146012000F0C7
:103A6000D5FF4FF40071022000F0D0FF41F2380181
:103A7000032000F0CBFF40F20221082000F0C6FF37
:103A80000021092000F0C2FF00210A2000F0BEFF43
:103A900000210C2000F0BAFF00210D2000F0B6FF3D
:103AA00000210F2000F0B2FF0021102000F0AEFF37
:103AB0000721112000F0AAFF0021122000F0A6FF2C
:103AC0000021132000F0A2FFC820FCF781FE41F284
:103AD0009061102000F09AFF40F22721112000F0A1
:103AE00095FF3220FCF774FE0C21122000F08EFFAF
:103AF0003220FCF76DFE4FF40061132000F086FFCA
:103B00001121292000F082FF0B212B2000F07EFFE5
:103B10003220FCF75DFE0021202000F077FF5C469C
:103B20005946212000F072FF0021302000F06EFF86
:103B30004FF483731946312000F068FF00213220D2
:103B400000F064FF4FF40171352000F05FFF41F297
:103B50000A61362000F05AFF3946372000F056FF40
:103B60001946382000F052FF3946392000F04EFF48
:103B700040F202413C2000F049FF40F60F413D2059
:103B800000F044FF0021502000F040FFEF215120C1
:103B900000F03CFF0021522000F038FF2146532066
:103BA00000F034FF4FF41C51602000F02FFF012182
:103BB000612000F02BFF00216A2000F027FF002188
:103BC000802000F023FF0021812000F01FFF002152
:103BD000822000F01BFF0021832000F017FF00214E
:103BE000842000F013FF0021852000F00FFF10213A
:103BF000902000F00BFF4FF4C0619220FDE33146AE
:103C0000012000F003FF4946022000F0FFFE41F2D0
:103C10003001032000F0FAFE0021042000F0F6FE3F
:103C200040F20721082000F0F1FE0021092000F0F9
:103C3000EDFE00210A2000F0E9FE00210C2000F03A
:103C4000E5FE00210D2000F0E1FE00210F2000F034
:103C5000DDFE1420FCF7BCFD41F2B061102000F045
:103C6000D5FE0121112000F0D1FE0121172000F026
:103C7000CDFE4FF49C71122000F0C8FE4FF400619D
:103C8000132000F0C3FE0921292000F0BFFE092106
:103C90002A2000F0BBFE0021A42000F0B7FE002186
:103CA000502000F0B3FEEF21512000F0AFFE0021C4
:103CB000522000F0ABFE5946532000F0A7FE4FF40F
:103CC0001C51602000F0A2FE0121612000F09EFE48
:103CD00000216A2000F09AFE0021802000F096FE6C
:103CE0000021812000F092FE0021822000F08EFE53
:103CF0000021832000F08AFE0021842000F086FE4F
:103D00000021852000F082FE1321902000F07EFE2D
:103D10000021922000F07AFE0321932000F076FE2D
:103D20005146952000F072FE40F27311072000F01A
:103D30006DFE322011E10021072000F067FE3220E5
:103D4000FCF746FD4FF48E71122000F05FFE01215A
:103D5000A42000F05BFE0F21082000F057FE082190
:103D60000A2000F053FE08210D2000F04FFE3946D6
:103D7000302000F04BFE0721312000F047FE40F2DA
:103D80000361322000F042FE4C464946332000F0E9
:103D90003DFE40F20221342000F038FE02213520A1
:103DA00000F034FE41F60F71362000F02FFE394648
:103DB000372000F02BFE0021382000F027FE0021E4
:103DC000392000F023FE39463A2000F01FFE002182
:103DD0003B2000F01BFE00E041E307213C2000F007
:103DE00015FE00213D2000F011FE3220FCF7F0FC12
:103DF0000121072000F00AFE0121172000F006FE35
:103E00003220FCF7E5FC4FF4BD51102000F0FEFD20
:103E100040F21721112000F0F9FD4FF48F711220AC
:103E200000F0F4FD4FF47061132000F0EFFD00216D
:103E30002A2000F0EBFD0A21292000F0E7FD4FF4D5
:103E40009F71122000F0E2FD0021502000F0DEFD05
:103E5000EF21512000F0DAFD0021522000F0D6FDC4
:103E60005946532000F0D2FD4FF41C51602000F061
:103E7000CDFD0121612000F0C9FD00216A2000F084
:103E8000C5FD0021802000F0C1FD01E068E066E191
:103E90000021812000F0BAFD0021822000F0B6FD53
:103EA0000021832000F0B2FD0021842000F0AEFD4F
:103EB0000021852000F0AAFD1321902002E017E2E6
:103EC000CEE275E300F0A2FD5146922000F09EFD87
:103ED0000521932000F09AFD0021952000F096FD29
:103EE0000021972000F092FD0021982000F08EFD27
:103EF0003146012000F08AFD2146022000F086FDB7
:103F000041F23801032000F081FD0021042000F07F
:103F10007DFD00210C2000F079FD00210F2000F034
:103F200075FD0021202000F071FD0021212000F00E
:103F30006DFD2121072000F069FD1420FCF748FCED
:103F40006121072000F062FD1420FCF741FC40F2E3
:103F50007311072000F05AFD1420FCF739FCA2E38E
:103F60000021084600F052FD0021084600F04EFDF9
:103F70000021084600F04AFD0021084600F046FDF9
:103F80000121A42000E0E5E000F040FD1420FCF752
:103F90001FFC4FF41C542146602000F037FD40F216
:103FA00002252946082000F031FD4FF4057130202C
:103FB00000F02CFD43F21571312000F027FD40F296
:103FC0000461322000F022FD40F61661332000F03B
:103FD0001DFD42F21121342000F018FD4FF4A851CC
:103FE000352000F013FD48F20751362000F00EFD99
:103FF00041F20741372000F009FD41F2034138202A
:1040000000F004FD2021392000F000FD1A2190204D
:1040100000F0FCFC0021102000F0F8FC072111202A
:1040200000F0F4FC0021122000F0F0FC002113202D
:1040300000F0ECFC1420FCF7CBFB4FF4E661102001
:1040400000F0E4FC40F23711112000F0DFFC1420F6
:10405000FCF7BEFB4FF4DC71122000F0D7FC1420FB
:10406000FCF7B6FB4FF47061132000F0CFFC802109
:104070002A2000F0CBFC4821292000F0C7FC1420A6
:10408000FCF7A6FB3146012000F0C0FC49460220A7
:1040900000F0BCFC41F23801032000F0B7FC2946D7
:1040A000082000F0B3FC00210A2000F0AFFC002142
:1040B0000C2000F0ABFC00210D2000F0A7FC30210B
:1040C0000E2000F0A3FC0021502000F09FFCEF2107
:1040D000512000F09BFC0021522000F097FC594633
:1040E000532000F093FC2146602000F08FFC01215A
:1040F000612000F08BFC00216A2000F087FC112178
:10410000902000F083FC4FF4C061922000F07EFC10
:1041100040F20241932000F079FC0221942000F04B
:1041200075FC1420FCF754FB0121072000F06EFC05
:104130001420FCF74DFB6121072000F067FC40F2E2
:104140007311072000F062FC0021202000F05EFCCB
:104150000021212000F05AFC222100207DE10021D5
:10416000084600F053FC0021084600F04FFC1420E4
:10417000FCF72EFB0021084600F048FC0021084611
:1041800000F044FC0021084600F040FC00210846F5
:1041900000F03CFC0121A42000F038FC1420FCF7C6
:1041A00017FB4FF41C51602000F030FC40F6060174
:1041B000082000F02BFC40F203731946302000F079
:1041C00025FC0121312000F021FC0421322000F0E7
:1041D0001DFC4FF48171332000F018FC5446514609
:1041E000342000F013FC40F20311352000F00EFCE7
:1041F0001F21362000F00AFC1946372000F006FC8B
:104200000121382000F002FC0421392000F0FEFBDF
:104210001521902000F0FAFB4FF48261102000F08D
:10422000F5FB40F24721112000F0F0FB4FF4DE7166
:10423000122000F0EBFB4FF46061132000F0E6FB6E
:104240007820FCF7C5FA3146012000F0DFFB4FF47F
:104250000071022000F0DAFB41F23001032000F08F
:10426000D5FB08210A2000F0D1FB00210C2000F032
:10427000CDFB20210E2000F0C9FB00210F2000F013
:10428000C5FB0021202000F0C1FB0021212000F00F
:10429000BDFB3D212A2000F0B9FB1420FCF798FA61
:1042A0002D21292000F0B2FB0021502000F0AEFBB0
:1042B0004DF2EF01512000F0A9FB0021522000F047
:1042C000A5FB5946532000F0A1FB0021612000F01E
:1042D0009DFB00216A2000F099FB2146922000F00E
:1042E00095FB0521932000F091FB3146FFF7AEBB13
:1042F0000121002000F08AFB0A20FCF769FA41F254
:104300002861102000F082FB0E21122000F07EFBBD
:1043100040F63921132000F079FB0A20FCF758FA07
:104320004021112000F072FB5021152000F06EFB9F
:104330000A20FCF74DFA1E21122000F067FB0A202C
:10434000FCF746FA4FF4B151102000F05FFB42F643
:104350003921132000F05AFB0A20FCF739FA3146C4
:10436000012000F053FB5146022000F04FFB41F2C8
:104370003801032000F04AFB40F20221082000F03F
:1043800045FB08210A2000F041FB0021302000F00D
:104390003DFB40F20241312000F038FB4FF48371C5
:1043A000322000F033FB40F20351332000F02EFBAB
:1043B0004FF48271342000F029FB40F201313520A6
:1043C00000F024FB3946362000F020FB40F2053196
:1043D000372000F01BFB4FF40271382000F016FB71
:1043E00040F60B71392000F011FB0221412000F052
:1043F0000DFB4FF41C51602000E0D4E000F006FB00
:104400000121612000F002FB4FF40471902000F0C4
:10441000FDFA4FF48571922000F0F8FA0421932000
:1044200000F0F4FA3146A02000F0F0FA0121072054
:1044300000F0ECFA2121072000F0E8FA2321072000
:1044400000F0E4FA3321072000F0E0FA40F23311E3
:10445000072000F0DBFA0021A02000F0D7FA22E1CB
:104460003021152000F0D2FA10219A2000F0CEFA67
:104470002021112000F0CAFA43F22841102000F058
:10448000C5FA0221122000F0C1FA41F238011320CE
:1044900000F0BCFA2820FCF79BF91221084600F036
:1044A000B5FA2820FCF794F943F22041102000F0DF
:1044B000ADFA43F23801132000F0A8FA4620FCF7C9
:1044C00087F90021302000F0A1FA40F202413120AA
:1044D00000F09CFA40F20731322000F097FA4FF4D6
:1044E0004171332000F092FA0421342000F08EFA5A
:1044F00040F20141352000F089FA3946362000F0BB
:1045000085FA40F20531372000F080FA4FF4C2639B
:104510001946382000F07AFA1946392000F076FA68
:104520003146012000F072FA5146022000F06EFA86
:1045300041F23001032000F069FA40F6080108203A
:1045400000F064FA08210A2000F060FA4FF41C51D0
:10455000602000F05BFA0121612000F057FA4FF46F
:104560009F71902000F052FA3146922000F04EFAEE
:104570003146932000F04AFA4FF44051A02000F059
:1045800045FA1021A32000F041FA0121072000F094
:104590003DFA2121072000F039FA2321072000F0FD
:1045A00035FA3321072000F031FA40F233119DE64D
:1045B000E2202880232020800220208004202080E8
:1045C0006320401EC0B2FCD2E02028800120208061
:1045D0000A20FCF7FDF8E0202880032020800C2032
:1045E000FCF7F6F8012028800A20FCF7F1F8E62015
:1045F000288003202080FF2020802080B020288079
:1046000020202080002020800320208040F21F30C6
:1046100020800120208040F2DF10208000202080B8
:10462000B42028800420208040F21F4020800020F9
:104630002080D220208000202080208020802080A8
:10464000B6202880022020804FF4037020800020B4
:1046500020802220208009202080002020802080AF
:10466000F02028800320208029202880D020288046
:1046700000202080BE20288005202080FE20208071
:1046800001202080FF20208000202080B82028806A
:104690000F20208001202080BA2028800120208047
:1046A000642000F017F80020FDF768F80122114699
:1046B0000348FCF7CDF94046BDE8F05FFDF728B8A8
:1046C000000C014002490880881C008870470000E7
:1046D000FE07006C0C4A10B5BE211180941C052108
:1046E0002180FBF7D5FD4FF06632084BFBF75EFDEE
:1046F000FBF7DBFD208001202080FF2020800020B0
:104700002080208010BD0000FE07006C666604401B
:10471000F0B5674C00232146A679898846F6040245
:1047200041F66315012E01D02EB11DE091421BD040
:10473000A94202D118E0A94216D1082814D2DFE814
:1047400000F00406080A0C0E101206200CE00720E8
:104750000AE0042008E0052006E0012004E0002033
:1047600002E0032000E00220A1F5134C45F21037CF
:1047700045F21056BCF1410C07D0914205D0B94228
:1047800003D0B14201D0A94275D1082812D2DFE886
:1047900000F0110406080A0C0E1080230AE04023E2
:1047A00008E0C02306E0202304E0602302E0A02309
:1047B00000E0E023B14202D14FF4585000E036202F
:1047C000B94205D0B14203D0A94201D043F0080359
:1047D000914201D143F00203194600F017F9A08875
:1047E000A8420AD099062188628802D5914202D354
:1047F00003E0914201D9228061802E498A1CB04297
:104800006089088021D100231380431C0B80002382
:104810001380831C0B8023885B1E1D0A1580C01C1F
:104820000880D8B21080A089088000231380431C20
:104830000B8000231380831C0B8063885B1E1C0A83
:104840001480C01C0880D8B212E0002010801080B4
:104850002088401E030A1380C0B21080A0890880FF
:104860000020108010806088401E010A1180C0B2B4
:104870001080F0BDFFE7082812D2DFE800F0040640
:1048800008110A0C0E1030230AE0102308E0202340
:1048900006E0382304E0282302E0182300E0082380
:1048A000BDE8F040032043F4805100F0AFB80000B1
:1048B00028010020FE07006C2DE9F04F4C4E0C46FD
:1048C00001464FEA102C3046B588DFF828B18289BE
:1048D000230A4089A5F513470BF1020A413F1CD07A
:1048E000A5F5A647103F18D0B64696F8069036882C
:1048F000A5F5D047A6EB0108A8F10108043F13D0A5
:10490000A5F5C857633F23D0A5F5AA477646103FC3
:104910004ED0B9F1010F60D061E05D46ABF8000008
:104920005046AAF800C00BE0B9F1010F01D11FFAFF
:1049300088F15D46ABF800000E0A5046AAF8006008
:10494000C9B201802A800380E1B20180BDE8F08F06
:10495000B9F1000F1DD0ABF800005046AAF800C016
:10496000C9B2AAF80010761E310AAAF80010F1B2F6
:104970000180ABF800205046AAF80030E1B2AAF856
:104980000010BEF80210491E0A0AAAF80020C9B297
:10499000DBE71FFA88F1ABF8000000265046AAF8C2
:1049A0000060AAF800600E0AAAF80060C9B2DFE74A
:1049B000ABF80000AAF800C0401CABF80000C8B279
:1049C000AAF80000ABF80020AAF80030521CABF89F
:1049D0000020E0B2AAF80000B8E71FFA88F100F062
:1049E00015F8B0892146BDE8F04F00F00FB800007F
:1049F00028010020FE07006C024803490089088056
:104A00007047000028010020FE07006C024A108059
:104A1000901C018070470000FE07006CF0B58268B2
:104A2000D0E9003400261546A24210D18160E01A78
:104A300016E056889F19A74206D1CB1A5380828868
:104A40000088101A4880F0BD16463A4601E0B1F8D9
:104A500000C01788BC45ECD8954203D18160D01ABC
:104A60004880F0BDD21A4A800088081A7080F0BDD4
:104A700070B505460E468468696820468C420CD1A4
:104A80001AA006E0204664882B681C44A14205D188
:104A90001CA001F071F8002070BDEA68238813445F
:104AA000B342EFD361884180E868228881198A4245
:104AB00010D9A1190144101A801B0880A868A042CF
:104AC00003D1A9606088488002E02846FFF7A6FF6E
:104AD000268007E02680A868A04203D16188286864
:104AE0000844A860E868204470BD0000C4DAB4E659
:104AF000C2FA2CCEDEC4DAB4E6BFC9D2D4B7D6C56A
:104B0000E40D0A00CEDEC4DAB4E6BFC9D2D4B7D60B
:104B1000C5E40D0A0000000010B504468818C4E979
:104B200000100420C4E902104A800A8007A021680E
:104B300001F022F80BA0616801F01EF8D4E9001022
:104B4000411ABDE810400DA001F016B86D657373F1
:104B50002D3E737461727441646472203D2025237C
:104B6000580D0A006D6573732D3E656E6441646473
:104B700072203D202523580D0A0000006D657373D7
:104B80002D3E656E6441646472202D206D657373E3
:104B90002D3E737461727441646472203D202564FB
:104BA0000D0A000000B51E488FB04FF02041016093
:104BB0001C4941600621816000211022C160C0E9CA
:104BC00004128161C16113020162C0E909139302F9
:104BD000C0E90B1341638163012000900F200DF1A8
:104BE000080C112301908CE80F000691CDE9071005
:104BF0000DF1240C03208CE80F000D9107AA6946E3
:104C00000748FCF777FC18B15D2107A000F0A0FF72
:104C10000948C16941F48061C1610FB000BD000065
:104C200020000020040100A02E2E2F5372632F6657
:104C3000736D632E6300000000000140224810B530
:104C4000816986B041F008018161816901F0080144
:104C50000491816941F480718161816901F48071FD
:104C60000491816941F040018161816901F0400155
:104C70000491816941F020018161816901F0200185
:104C80000491816941F010018161816901F0100195
:104C90000491816941F00401816180690B4C00F04D
:104CA00004000490002201212046FBF7D1FE0121DF
:104CB0000220CDE902100091019169462046FBF7E0
:104CC000D3FD06B010BD000000100240000C0140F2
:104CD000114810B50F490160002141608160C16039
:104CE0000161416104218161FCF792FB18B141210E
:104CF0000AA000F02DFF4FF400610748FCF7F0F91F
:104D0000002805D0BDE81040462104A000F020BFD7
:104D100010BD000000800140640000202E2E2F53A3
:104D200072632F7364696F2E630000000D4810B525
:104D30000B4901604FF4E1314160002181600C2298
:104D4000C160C0E904128161C161FCF725FC002843
:104D500005D0BDE81040422103A000F0F9BE10BD0F
:104D600000380140E80000202E2E2F5372632F756B
:104D7000736172742E630000FEE770470907090E25
:104D8000002806DA00F00F0000F1E02080F8141D82
:104D9000704700F1E02080F8001470472DE9F041E1
:104DA000884607461D46164620210B48FFF760FE41
:104DB00000210176C16104460182FBF70DFC01462A
:104DC0006161E580A6802780A4F80280034920461F
:104DD000A160BDE8F081000038010020070600084E
:104DE000F8B5F022044611461046FBF758FB009038
:104DF000E388A28861882088FBF7CAFBE32211467A
:104E00001046FBF74CFB03462088A188E588014447
:104E1000491C8AB26188401E2944491C89B280B26B
:104E2000FBF746FBE32211461046FBF738FB03462F
:104E30006188E088A588084482B220882844401C04
:104E400080B2FBF763FB2088A188E3880144891CBA
:104E50008AB26188801E1944891C4FF6FF7689B298
:104E600080B23346FBF724FB6088E188A3880144C5
:104E7000891C8AB22188401E1944891C8DB281B2D6
:104E800033462846FBF742FBA02211461046FBF7AB
:104E900006FB03462088A18801448AB26188401E2F
:104EA000491E89B280B2FBF703FBA02211461046CF
:104EB000FBF7F5FA03466188E088084482B220884F
:104EC000401E80B2FBF722FB692211461046FBF719
:104ED000E6FA03462088A1880144491C8AB2618809
:104EE000801E891E89B280B2FBF7E2FA6922114660
:104EF0001046FBF7D4FA03466088E1880144491C58
:104F00008AB2401E81B2208801B0401EBDE8F04048
:104F100080B2FBF7FBBA38B5F022044611461046C2
:104F2000FBF7BDFA0090E388A28861882088FBF730
:104F30002FFBA02211461046FBF7B1FA034620884A
:104F4000A188E5880144491C8AB26188401E294431
:104F5000491C89B280B2FBF7ABFAA0221146104679
:104F6000FBF79DFA03466188E088A588084482B271
:104F700020882844401C80B2FBF7C8FA69221146F9
:104F80001046FBF78CFA03462088A188E588014487
:104F9000891C8AB26188801E2944891C89B280B22A
:104FA000FBF786FA692211461046FBF778FA0346AA
:104FB0006088E188A5880144891C8AB22188401E46
:104FC0002944891C8DB281B22846FBF79FFAE3225F
:104FD00011461046FBF763FA03462088A188014476
:104FE0008AB26188401E491E89B280B2FBF760FA1E
:104FF000E32211461046FBF752FA03466188E08827
:10500000084482B22088401E80B2FBF77FFA2088D5
:10501000A1884FF6FF750144491C8AB26188801E41
:10502000891E89B280B22B46FBF742FA6088E1887C
:105030002B460144491C8AB2401E81B2208801B02F
:10504000401EBDE8304080B2FBF760BA70470A6886
:1050500042624A688262D1E902231A43D1E90431EB
:105060000B43C16A1A4321F0F7011143C1620020CA
:105070007047006800F00300704708B5084414301A
:105080000090006808BD70B50DF1100C11439CE84C
:1050900070002343194329434268314347F6FF63B5
:1050A0009A430A434260002070BD03210160002042
:1050B0007047D0F8800070470A688260D1E9012308
:1050C0001A43D1E903310B43C1681A436FF30B0153
:1050D0001143C1600020704710B586B004463720E8
:1050E000CDE9001040200290002003904FF4806032
:1050F000049069462046FFF7DFFF41F288323721EE
:10510000204600F039F906B010BD000010B5044685
:105110000A4886B001432920CDE9001040200290C2
:10512000002003904FF48060049069462046FFF70A
:10513000C3FF204600F0D6F906B010BD0000108075
:1051400010B586B004461020CDE900104020029032
:10515000002003904FF48060049069462046FFF7DA
:10516000ABFF41F288321021204600F005F906B06D
:1051700010BD10B586B004460620CDE900104020D1
:105180000290002003904FF480600490694620460E
:10519000FFF792FF41F288320621204600F0ECF83A
:1051A00006B010BD30B585B00024054600940194CA
:1051B0004FF480600294CDE9034069462846FFF72A
:1051C0007BFF0B484FF4FA510068B0FBF1F041F25D
:1051D00088314843401E03D24FF0004005B030BD37
:1051E000696B0906F6D540F2FF50A8632046F5E743
:1051F0001400002070B585B004464FF4D5700090BF
:1052000008204026CDE901060025C001CDE9035064
:1052100069462046FFF750FF0F484FF4FA510068E7
:10522000B0FBF1F041F288314843401E02D24FF00A
:1052300000450DE0616B11F0450FF6D0606B400743
:1052400002D5A663042503E0606B400600D5A66383
:1052500005B0284670BD00001400002010B586B0CF
:1052600004460720CDE90020402002900020039052
:105270004FF48060049069462046FFF71DFF41F21D
:1052800088320721204600F077F806B010BD10B52F
:1052900086B0044600210220CDE90010C020CDE9EF
:1052A00002014FF48060049069462046FFF704FF36
:1052B000204600F0EFF806B010BD10B586B00446E9
:1052C0000920CDE90010C0200290002003904FF487
:1052D0008060049069462046FFF7EEFE204600F00D
:1052E000D9F806B010BD10B586B0044600213320B1
:1052F000CDE900104020CDE902010001049069468B
:105300002046FFF7D9FE41F288323321204600F0D3
:1053100033F806B010BD10B586B004460D20CDE9B7
:10532000001040200290002003904FF48060049011
:1053300069462046FFF7C0FE41F288320D21204623
:1053400000F01AF806B010BD30B585B00C46054621
:1053500000210320CDE900104020CDE90201000129
:10536000049069462846FFF7A7FE224603212846F7
:1053700000F0D8F805B030BD444B10B51B684FF4B1
:10538000FA54B3FBF4F353435B1E02D24FF00040D8
:1053900010BD426B12F0450FF6D0426B520703D599
:1053A00004218163084610BD426BD20702D001215F
:1053B000816303E00269D2B28A4201D0012010BDAC
:1053C00040F2FF5181630021FFF757FE3049084248
:1053D00001D1002010BD002802DA4FF0007010BD8E
:1053E000410001D5402010BD810001D5802010BDB5
:1053F000C10002D54FF4807010BD010102D54FF4F9
:10540000007010BD410102D54FF4806010BDC10194
:1054100002D54FF4006010BD010202D54FF4805058
:1054200010BD410202D54FF4005010BD810202D5DB
:105430004FF4804010BDC10202D54FF4004010BDB2
:10544000410302D54FF4003010BD810302D54FF463
:10545000802010BDC10302D54FF4002010BD01040F
:1054600002D54FF4801010BD410402D54FF4001056
:1054700010BD810402D54FF4800010BD000702D595
:105480004FF4000010BD4FF4803010BD1400002018
:1054900008E0FFFD12494FF4FA520968B1FBF2F13E
:1054A00041F288325143491E02D24FF0004070470A
:1054B000426B12F0450FF6D0416B490703D504212A
:1054C000816308467047416BC90703D0012181639E
:1054D0000846704740F2FF5181630020704700008A
:1054E000140000200E494FF4FA520968B1FBF2F1A2
:1054F00041F288325143491E02D24FF000407047BA
:10550000426B12F0450FF6D0416B490703D50421D9
:1055100081630846704740F2FF5181630020704765
:10552000140000201F4B10B51B684FF4FA54B3FB56
:10553000F4F341F2883463435B1E02D24FF0004023
:1055400010BD446B14F0450FF6D0436B5B0703D5D9
:1055500004218163084610BD436BDB0702D00121A3
:10556000816303E00369DBB28B4201D0012010BDEF
:1055700040F2FF5181630021FFF77FFD10F4604F7F
:1055800004D0410406D54FF4005010BD000C10802B
:10559000002010BD000402D54FF4805010BD4FF420
:1055A000803010BD140000202DE9F04F89B00E4668
:1055B0000446FBF753FA00258346009501952F46D4
:1055C00008212068FFF7BCFD002834D1B4F8500052
:1055D00001042068FFF780FD00282CD1401E4FF009
:1055E0000808CDE9020830204FF00209CDE904098E
:1055F0000120CDE9067002A92068FFF728FD206888
:10560000FFF771FE002816D1EA4640F22A472068CB
:10561000416B394212D1416B890204D5FFF749FD34
:105620004AF825006D1CFBF719FAA0EB0B00401C93
:10563000EDD14FF0004009B0BDE8F08F416B090794
:1056400003D5C0F838800820F5E7416B890703D5FA
:10565000C0F838900220EEE7416B890603D520217F
:1056600081630846E7E740F2FF518163009800BA82
:105670007060019800BA30600020DCE710B590B08F
:1056800004460120ADF838002068FFF7F2FC00283E
:1056900064D0606C032842D02068FFF7F8FD002832
:1056A0005AD100212068FFF7E8FC606704212068D8
:1056B000FFF7E3FCA06708212068FFF7DEFCE06746
:1056C0000C212068FFF7D9FCC4F88000606C032827
:1056D00025D00EA92068FFF737FE00283CD1606C6A
:1056E00003281CD0BDF83800206501042068FFF7AE
:1056F000E4FD002830D100212068FFF7BEFC606681
:1057000004212068FFF7B9FCA06608212068FFF794
:10571000B4FCE0660C212068FFF7AFFC2067042191
:105720002068FFF7AAFC000DE06403A92046FBF700
:105730006CFDB4F85000002302042068FFF78EFDD2
:10574000002809D104F1100007C88DE8070094E88B
:105750000F00FFF798FC002010B010BD4FF08060E4
:10576000FAE72DE9F8430025044600950068FFF7A5
:1057700019FD00281AD12068FFF73CFD4FF0807812
:105780004FF6FF76D8B14FF08057A5640098411CC2
:105790000091B0421AD000212068FFF79DFC20B98B
:1057A00000212068FFF7B2FC10B13846BDE8F8834D
:1057B00000212068FFF761FCC00FE7D01FE0012740
:1057C000A7640098411C0091B04201D14046EDE72A
:1057D00000212068FFF780FC0028E7D14FF08041CE
:1057E0002068FFF793FC0028E0D100212068FFF734
:1057F00044FCC10FE5D0400001D5676400E065645A
:105800000020D3E71CB50446002000900190002141
:105810002068FFF732FC800102D54FF400601CBD08
:1058200069462046FFF7C0FE0028F8D10198C00362
:105830000CD5B4F8500001042068FFF74DFC002897
:10584000EDD100212068FFF794FC1CBD4FF0806073
:105850001CBD1CB50446002000900190002120686A
:10586000FFF70BFC800102D54FF400601CBD6946B8
:105870002046FFF799FE0028F8D1019840030CD587
:10588000B4F8500001042068FFF726FC0028EDD191
:1058900002212068FFF76DFC1CBD4FF080601CBD2D
:1058A000704710B5FBF7E0F8BDE81040FBF770BE9D
:1058B00030B58FB001210804CDE900100024029416
:1058C00002250491CDE907504FF4E0100990684695
:1058D000FBF784FA08B1B0210DE00F20CDE90A05ED
:1058E0004FF48060CDE90C4002210AA80E94FBF72A
:1058F0006FF918B1BE210AA000F02AF9FBF712FADD
:105900004FF47A71B0FBF1F0FBF72EFE0420FBF7A9
:105910001EFE00221146501EFBF728F90FB030BDC5
:105920002E2E2F5372632F6D61696E2E630000005F
:105930000D48016841F00101016041680B4A1140C6
:10594000416001680A4A11400160016821F4802128
:105950000160416821F4FE0141604FF41F01816044
:105960000449C00308607047001002400000FFF8BF
:10597000FFFFF6FE08ED00E02DE9F0410446006867
:105980000169E26821F44051114301612169A06875
:105990000843616908432168CA6841F20C639A436D
:1059A0000243CA6020684169A26921F44071114331
:1059B00041614C4920686425322688423CD1FBF77E
:1059C000C7F900EBC00101EB001061688900B0FB72
:1059D000F1F7FBF7BDF900EBC00101EB00106168C6
:1059E000B0468900B0FBF1F0B0FBF5F06FF01801A4
:1059F000484307EB800106EB0110B0FBF5F000F027
:105A0000F006FBF7A5F900EBC00101EB001061689F
:105A10008900B0FBF1F0B0FBF5F006EB0016FBF7E8
:105A200097F900EBC00101EB001061688900B0FB41
:105A3000F1F7FBF78DF93BE0FBF77AF900EBC001DA
:105A400001EB001061688900B0FBF1F7FBF770F91A
:105A500000EBC00101EB00106168B0468900B0FBAB
:105A6000F1F0B0FBF5F06FF01801484307EB80014F
:105A700006EB0110B0FBF5F000F0F006FBF758F96B
:105A800000EBC00101EB001061688900B0FBF1F090
:105A9000B0FBF5F006EB0016FBF74AF900EBC0018E
:105AA00001EB001061688900B0FBF1F7FBF740F9EA
:105AB00000EBC00101EB001061688900B0FBF1F060
:105AC000B0FBF5F06FF01801484307EB800108EBDD
:105AD0000110B0FBF5F0216800F00F003044886041
